:04000000F9EF00F024
:100008005582FACF18F0FBCF19F0E9CF1AF0EACFF2
:100018001BF0E1CF1CF0E2CF1DF0D9CF1EF0DACFF4
:100028001FF0F3CF20F0F4CF21F0F6CF22F0F7CF76
:1000380023F0F8CF24F0F5CF25F0F0B6F0A0ABD040
:10004800F090620EC3EC2DF0276E27A011D04390DC
:1000580043BC439C000E0101386F000E376F43A26A
:1000680007D0480EC3EC2DF0266E26B04384439289
:1000780027A68AD02968000E2A6E010E2A6401D0AC
:1000880010D02A50500D000EF324D96E030EF42020
:10009800DA6EDF50D8A403D02AC029F002D02A2A69
:1000A800ECD7020E29606BD0040E036E730ED8ECE9
:1000B8002DF02950500D000EF324D96E030EF420B4
:1000C800DA6E030E046E000E036E80EC2CF0020F45
:1000D800DF6E2950500D000EF324D96E030EF42064
:1000E800DA6E4F0EDF6040D0438A010E2A6E1AD0B6
:1000F8002950500D000E136E030E146EF350132684
:10010800F45014222A501324D96E000E1420DA6EEB
:10011800000E2A24036E046A030E042280EC2CF0DD
:10012800DF6E2A2A2A50136E146A2950500D000EC9
:10013800F324D96E030EF420DA6EDF50156E166ABA
:10014800020E1526000E16221350155C1650800A52
:10015800176E1450800A1758D8B0CAD7010E036E0C
:100168001B0ED8EC2DF005D0010E036E1B0ED8EC3B
:100178002DF0000E036E730ED8EC2DF005D0010E95
:10018800036E1B0ED8EC2DF027A805D0800E036E49
:10019800590ED8EC2DF09EB09DA007D09E90492A0C
:1001A8004950D8A402D00101432B4EEC2EF025C0B3
:1001B800F5FF24C0F8FF23C0F7FF22C0F6FF21C0D7
:1001C800F4FF20C0F3FF1FC0DAFF1EC0D9FF1DC017
:1001D800E2FF1CC0E1FF1BC0EAFF1AC0E9FF19C01B
:1001E800FBFF18C0FAFF55921100B0EF26F00AEC99
:1001F80011F00009D8B47FEF0AF03DB41200000EE8
:100208000101006F2BA404D00001B06BB02B02D009
:100218000001B06B010100510001B019FC0BB019CD
:100228000101006F2BA603D00101008702D0010154
:1002380000972B50030BE806D8A404D00001B06B3C
:10024800B02B02D00001B06B0001B03BB0470101F8
:1002580000510001B019DF0BB0190101006F2BAE7E
:1002680003D00101008D02D00101009D2BAE0BD0FF
:1002780033B003D00101009F02D00101008F2CC0D0
:1002880003F12DC004F134C001F135C002F132C0D0
:1002980009F131C008F13D946FEF0AF00A0E3060A1
:1002A80002D07CEF0AF020EE02F02E50D9262F5013
:1002B800DA22DF500001CD6F20EE03F02E50D92650
:1002C8002F50DA22DF500001CE6F20EE04F02E50BE
:1002D800D9262F50DA22DF500001D06F20EE05F02A
:1002E8002E50D9262F50DA22DF500001D16F20EE90
:1002F80006F02E50D9262F50DA22DF500001D26F97
:1003080020EE07F02E50D9262F50DA22DF500001B8
:10031800D36F20EE08F02E50D9262F50DA22DF5066
:100328000001D56F20EE09F02E50D9262F50DA2281
:10033800DF500001D66F000E0101006F2BA603D01D
:100348000101008702D00101009701010051030B50
:100358000009D8A407D00001D02903E10001D12960
:10036800D8A41ED14E500001D51911E14F500001FB
:10037800D619D8A40CD00001FD510001D21907E10B
:100388000001FE510001D319D8B47CEF0AF02EC049
:10039800D9FF2FC0DAFF010EDF6447D02EC0D9FF86
:1003A8002FC0DAFFDF06000E0101416F000E0001C9
:1003B800D86F18D00001D851010DF3502E24D96EF2
:1003C800F4502F20DA6E01014151010D440EF3243F
:1003D800E16E010EF420E26EDFCFE7FF0101412B51
:1003E8000001D82B30500001D85DD8A0E3D72BC02E
:1003F80036F0FDC03BF0FEC03CF033C03AF0140EBE
:10040800FBEC25F020EE36F000EE7EF0060EDBCF9A
:10041800EBFFE806FCE2440E0001856F010E0001C7
:10042800866F41C187F073EC14F0000E0001D86F9D
:10043800030E0001D86501D03CD00001D851080D49
:10044800030EF326000EF422000EF324D96E020EDA
:10045800F420DA6EDF50D8B429D00001D851080D45
:10046800000EF324D96E020EF420DA6E0001D55185
:10047800DE181CE10001D651DE18D8A417D020EEF2
:100488000AF02E50D9262F50DA220001D851080D33
:10049800020EF326000EF422000EF324E16E020E83
:1004A800F420E26EDE50E618D8B403D00001D82B51
:1004B800BFD7040E0001D86102D07CEF0AF0000E0D
:1004C8000001D86F030E0001D86501D013D00001D8
:1004D800D851080D030EF326000EF422000EF32463
:1004E800D96E020EF420DA6EDF50D8B403D00001C2
:1004F800D82BE8D7040E0001D8614CD00001D851A0
:10050800080D000EF324D96E020EF420DA6ED5C061
:10051800DEFFD6C0DDFF20EE0AF02E50D9262F5080
:10052800DA220001D851080D020EF326000EF4223B
:10053800000EF324E16E020EF420E26EDFCFE7FF37
:100548000001D851080D030EF326000EF422000E08
:10055800F324D96E020EF420DA6E030EDF6EFBEC84
:100568002AF00001D851080D040EF326000EF422DB
:10057800000EF324D96E020EF420DA6E000160C07A
:10058800DEFF000161C0DEFF000162C0DEFF000186
:1005980063C0DEFF01010051FC0B0109006F7AD036
:1005A8000001FD510001CD1905E10001FE510001D6
:1005B800CE19D8A4CAD24E500001D01904E14F5028
:1005C8000001D119D8A4C1D220EE01F02E50D926AD
:1005D8002F50DA22DFA45ED054C044F1020E01018C
:1005E800456FD2C046F1D3C047F1D5C048F1D6C057
:1005F80049F1FDC04AF1FEC04BF14EC04CF14FC06D
:100608004DF120EE0AF02E50D9262F50DA22DF5075
:1006180001014E6F000E01014F6F300E0101506F46
:100628000D0E0101416F4F500001D619D8B40ED0FC
:10063800D2C0A4F0D3C0A5F0D5C0A6F0D6C0A7F00C
:10064800000E0001A86FD0EC16F022D0000E366E16
:10065800368A010E396E010E3A6ED50E376E000ECF
:10066800386ED2C03BF0D3C03CF020EE36F000EE3E
:100678007EF0060EDBCFEBFFE806FCE2440E00013D
:10068800856F010E0001866F41C187F073EC14F08D
:100698000101008520EE0BF02E50D9262F50DA22CA
:1006A800DF50D8A410D220EE0CF02E50D9262F50AF
:1006B800DA22300EDE18D8A4DCD1EAD1010177B3F2
:1006C8004AD0FBEC2AF060C08DF161C08EF162C0A7
:1006D8008FF163C090F120EE08F02E50D9262F50EC
:1006E800DA22DF500101796F20EE09F02E50D92669
:1006F8002F50DA22DF5001017A6F000E0001D76F08
:10070800070E0001D76501D020D00001D7510001A4
:10071800B06FB16B0D0E0001B027000EB1230001C0
:10072800B0512E24D96E0001B1512F20DA6E00018C
:10073800D751010D7B0EF324E16E010EF420E26E19
:10074800DFCFE7FF0001D72BDBD70101778301015A
:1007580077917CEF0AF020EE08F02E50D9262F5022
:10076800DA2201017951DE18D8A40CD020EE09F064
:100778002E50D9262F50DA2201017A51DE18D8B42A
:100788007CEF0AF00101795101017A11D8A467D0F0
:10079800000E0001D76F070E0001D76501D034D0D5
:1007A8000001D7510001B06FB16B0D0E0001B027E9
:1007B800000EB1230001B0512E24D96E0001B151B1
:1007C8002F20DA6E0001D751010D850EF324E16E5A
:1007D800010EF420E26EDFCFE7FF0001D751010DD3
:1007E800850EF324D96E010EF420DA6E0001D7517C
:1007F800010D1A0EF324E16E010EF420E26EDFCF34
:10080800E7FF0001D72BC7D720EE08F02E50D926D6
:100818002F50DA22DF500101836F20EE09F02E50AD
:10082800D9262F50DA22DF500101846F83C150F09E
:1008380084C151F0FDC091F1FEC092F1BDEC29F0E8
:100848000101786F01017829D8A498D08D0E486EDF
:1008580050BE4890E1EC23F00101786F8FD00B0E69
:100868000101416F01014151010D440EF324D96E7C
:10087800010EF420DA6E000EDF6E0101412B01013A
:100888004151010D440EF324D96E010EF420DA6EA5
:10089800110EDF6E0101412B000E0001D76F070E0C
:1008A8000001D76501D036D00001D7510001B06FE3
:1008B800B16B0D0E0001B027000EB1230001B0513D
:1008C8002E24D96E0001B1512F20DA6E0001D751C4
:1008D800010D850EF324E16E010EF420E26EDFCFE8
:1008E800E7FF0001D751010D850EF324D96E010EE3
:1008F800F420DA6E01014151010D440EF324E16E3A
:10090800010EF420E26EDFCFE7FF0101412B000169
:10091800D72BC5D720EE08F02E50D9262F50DA2233
:10092800DF500101836F20EE09F02E50D9262F5099
:10093800DA22DF500101846F01014151010D440E9B
:10094800F324D96E010EF420DA6E83C1DFFF0101B2
:10095800412B01014151010D440EF324D96E010EC2
:10096800F420DA6E84C1DFFF0101412B790E00010A
:10097800AE6F010E0001AF6F30EC29F001017783F3
:10098800010177817CEF0AF0000E0001CC6F070EA1
:100998000001CC6501D020D00001CC510001B06F1E
:1009A800B16B0D0E0001B027000EB1230001B0514C
:1009B8002E24D96E0001B1512F20DA6E0001CC51DE
:1009C800010D1A0EF324E16E010EF420E26EDFCF62
:1009D800E7FF0001CC2BDBD78D0E486E20EE15F01B
:1009E8002E50D9262F50DA22DFBE489020EE15F07F
:1009F8002E50D9262F50DA22DF50506E20EE16F0F6
:100A08002E50D9262F50DA22DF50516EFDC091F1B9
:100A1800FEC092F1BDEC29F00101786F010178293F
:100A2800D8B412D0010178510D0D0C0EF326000E2A
:100A3800F422200EF324D96E020EF420DA6EDF5071
:100A4800486E4884488604D08D0E486E50BE489043
:100A5800E1EC23F00101786F01017829D8B403D0C3
:100A68000101778102D001017791010177937CEF31
:100A78000AF020EE0CF02E50D9262F50DA22DF5043
:100A8800100AD8B41BD6010AD8B47ED77CEF0AF076
:100A980020EE0AF02E50D9262F50DA220101EF510C
:100AA800DE18D8A47CEF0AF0010131510001D519F4
:100AB80005E1010132510001D619D8A47CEF0AF0F2
:100AC8003D967CEF0AF03050F50F0101076F0B0ED1
:100AD8002E240101056F000E2F200101066FD2C0E0
:100AE80001F1D3C002F120EE08F02E50D9262F5084
:100AF800DA22DE28D8A415D020EE09F02E50D92607
:100B08002F50DA22DE28D8A40CD033B003D001014C
:100B1800009F02D00101008F2CC003F12DC004F109
:100B28000AD00101008F080E2E240101036F000E68
:100B38002F200101046F0101008D01010751D8B474
:100B48007CEF0AF03D847CEF0AF02EC0D9FF2FC05D
:100B5800DAFFDF50D8B47CEF0AF02EC0D9FF2FC0DF
:100B6800DAFFDF06000E0101416F000E0001D86FA9
:100B780018D00001D851010DF3502E24D96EF4502D
:100B88002F20DA6E01014151010D440EF324E16E6C
:100B9800010EF420E26EDFCFE7FF0101412B0001D7
:100BA800D82B30500001D85DD8A0E3D74F500001B2
:100BB800D119D8A42DD001014F51D8A429D0300E75
:100BC80001015019D8A424D0000E366E368A010EC1
:100BD800396E010E3A6ED00E376E000E386ECDC0EB
:100BE8003BF0CEC03CF020EE36F000EE7EF0060E74
:100BF800DBCFEBFFE806FCE2440E0001856F010E37
:100C08000001866F41C187F073EC14F07CEF0AF0A5
:100C1800CDC0A4F0CEC0A5F0D0C0A6F0D1C0A7F03A
:100C2800000E2BB6010E0001A86FD0EC16F07CEF79
:100C38000AF0000E0001CA6F0001CA510001B06F2E
:100C4800B16B040E0001B027000EB1230001B051B2
:100C58002E24D96E0001B1512F20DA6E4D0EDE1808
:100C6800D8A47CEF0AF020EE01F02C50D9262D50A4
:100C7800DA22DF500001C56FC5C0B0F0010E0001D7
:100C8800B16F0001B02B03D00001D890B13700013B
:100C9800B02FFAD70001B1510001BE6F2CC0D9FFA7
:100CA8002DC0DAFFDF50D8A404D00001BE510101E5
:100CB80042130001CA510001B06FB16B060E00016A
:100CC800B027000EB1230001B0512E24D96E0001C7
:100CD800B1512F20DA6E0001C551010D120EF32417
:100CE800E16E010EF420E26EDFCFE7FF3DA07CEF5E
:100CF8000AF034C091F135C092F12CC0D9FF2DC053
:100D0800DAFFDF50506E20EE01F02C50D9262D501E
:100D1800DA22DF50516E0001CA51010DF3502E2422
:100D2800D96EF4502F20DA6EDE28D8A4E1D3000162
:100D3800CA510001B06FB16B010E0001B027000E5F
:100D4800B1230001B0512E24D96E0001B1512F20DA
:100D5800DA6EDF500001CB6F0A0E3F60C9D3000185
:100D6800CB39030B0001B06F020E0001B061C0D394
:100D78003F500E0D000EF324D96E040EF420DA6EE7
:100D880052C0DFFF3F500E0D0B0EF326000EF4226B
:100D9800000EF324D96E040EF420DA6E08C1DFFFCA
:100DA8003F500E0D0C0EF326000EF422000EF32415
:100DB800D96E040EF420DA6E09C1DFFF3F500E0D24
:100DC800090EF326000EF422000EF324D96E040E49
:100DD800F420DA6E91C1DEFF92C1DDFF3F500E0DA7
:100DE8000D0EF326000EF422000EF324D96E040E25
:100DF800F420DA6E000EDF6E3F500E0D0D0EF32656
:100E0800000EF422000EF324D96E040EF420DA6EDC
:100E18000401DF8C0001CB31030B0001B06F3F50A0
:100E28000E0D0D0EF326000EF422000EF324D96EDB
:100E3800040EF420DA6E0401DF500001B019FC0B37
:100E4800B0190401DF6E0001CBA70ED03F500E0D84
:100E58000D0EF326000EF422000EF324D96E040EB4
:100E6800F420DA6E0401DF860001CB39030B0001A0
:100E7800B06F020E0001B0610ED03F500E0D0D0E86
:100E8800F326000EF422000EF324D96E040EF4208B
:100E9800DA6E0401DF8A03C1D9FF04C1DAFF3F50CB
:100EA8000E0D010EF326000EF422000EF324E16E5F
:100EB800040EF420E26EDFCFE7FF010120EE01F01F
:100EC8000351D9260451DA223F500E0D020EF326A3
:100ED800000EF422000EF324E16E040EF420E26EFC
:100EE800DFCFE7FF3F500E0D0D0EF326000EF42264
:100EF800000EF324D96E040EF420DA6E0401DF8E9E
:100F08003F2AF6D2000E0001C06F010E426401D0E4
:100F1800EFD2000E0001D86F070E0001D86501D08E
:100F280017D00001D851010DF3502C24D96EF4507C
:100F38002D20DA6E0001D851010D1A0EF324E16E4E
:100F4800010EF420E26EDFCFE7FF0001D82BE4D7D3
:100F5800D5EC24F00001D46F0001D429D8A419D00D
:100F68004250D8A4C5D2B70E486EFDC091F1FEC05C
:100F780092F1E1EC23F00001D46F0001D429D8A448
:100F88002AD0010E0001C06FFF0E516EFE0E506E8A
:100F980095D00001D4510D0D0C0EF326000EF4224D
:100FA800200EF324D96E020EF420DA6E0201DFA6B9
:100FB80012D00001D4510D0D020EF326000EF422BA
:100FC800200EF324D96E020EF420DA6EDECF50F034
:100FD800DDCF51F073D00001D429D8B46FD000010F
:100FE800D429506E4FC051F0FDC091F1FEC092F16E
:100FF800020E4718D8A443D020EE01F02E50D9266F
:101008002F50DA22DFAC3BD050C0BCF051C0BDF04D
:10101800000E506E010E0001CF6F070E0001CF6564
:1010280001D024D0CFC051F0BDEC29F00001BF6F32
:101038000001BF29D8A417D0000E506ECFC051F0C0
:10104800CFC0B0F0010E0001B16F0001B02B03D08A
:101058000001D890B1370001B02FFAD70001B15183
:101068000101421303D00001CF2BD7D7080E00018E
:10107800CF19D8A404D0BCC050F0BDC051F0BF0EE9
:10108800486E20EE01F02E50D9262F50DA22DFB01C
:1010980002D04890508EE1EC23F00001D46F00019B
:1010A800D4510D0D0C0EF326000EF422200EF3245D
:1010B800D96E020EF420DA6E0201DF88020E0101F9
:1010C800446F50C045F151C046F1C0C047F1040E0D
:1010D8000101416FFD0E00019D6F000E00019E6F22
:1010E8000001D4510D0D040EF326000EF422200E3B
:1010F800F32400019F6F020EF4200001A06F010E7F
:101108000001A16F000E0001A26F5AEC27F0F0D188
:1011180020EE03F02E50D9262F50DA22DF50D8A423
:1011280088D020EE01F02E50D9262F50DA22DF5039
:101138004E6E20EE02F02E50D9262F50DA22DF50C4
:101148004F6E4E50D8A424D0010E476E47C0B0F061
:101158000001B047010140510001B019F90BB01965
:101168000101406F4FC0B0F0070E0001B017010E2B
:101178000001B16F0001B02B03D00001D890B13746
:101188000001B02FFAD70001B129010142130ED096
:10119800000E476E47C0B0F00001B0470101405152
:1011A8000001B019F90BB0190101406F4E0E000192
:1011B800656F000E0001666FFD0E0001676F000E7F
:1011C8000001686F33EC2BF03D82BF0E486E000EB5
:1011D8000001D86F070E0001D86501D017D00001B3
:1011E800D851010DF3502C24D96EF4502D20DA6E0D
:1011F8000001D851010D1A0EF324E16E010EF420FE
:10120800E26EDFCFE7FF0001D82BE4D74E50D8A419
:1012180003D0000E516E02D04FC051F0000E506E38
:10122800FDC091F1FEC092F1E1EC23F00001FC6FEA
:101238005FD10001FC690001FD69FE6950685168D1
:10124800500E0001656F000E0001666FFD0E000173
:10125800676F000E0001686F33EC2BF049D13350F3
:10126800D8B417D02CC0D9FF2DC0DAFFDF50506E8C
:1012780020EE01F02C50D9262D50DA22DF50516E85
:10128800BDEC29F00001C86F0001C829D8B430D1DD
:1012980022D0000E0001D86F070E0001D86501D0DA
:1012A80017D00001D851010DF3502C24D96EF450F9
:1012B8002D20DA6E0001D851010D1A0EF324E16ECB
:1012C800010EF420E26EDFCFE7FF0001D82BE4D750
:1012D800D5EC24F0D7D70001C8510D0D0C0EF3261C
:1012E800000EF422200EF324D96E020EF420DA6EDA
:1012F8000201DFAAFDD00001FC510001C819D8B4D1
:1013080010D00001C8510D0D0C0EF326000EF4226A
:10131800200EF324D96E020EF420DA6E000EDF6E72
:10132800E7D0000E0001D86F060E0001D86501D085
:1013380090D00001D8510D0D0C0EF326000EF422AA
:10134800200EF324D96E020EF420DA6E0201DFAE0D
:101358006ED00001D8510D0D0C0EF326000EF422AC
:10136800200EF324D96E020EF420DA6E0201DFAAF1
:101378005ED00001FC510001D819D8B458D0000E35
:101388000101416F01014151010D440EF324D96E51
:10139800010EF420DA6E030EDF6E0101412B000E00
:1013A800366E368A3650FC0B0109366E010E396EE0
:1013B800010E3A6E0001D8510D0D200EF324D96E9E
:1013C800020EF420DA6EDECF3BF0DDCF3CF00001F8
:1013D800D8510D0D020EF326000EF422200EF32430
:1013E800376E020EF420386E20EE36F000EE7EF0F6
:1013F800060EDBCFEBFFE806FCE2440E0001856F2A
:10140800010E0001866F41C187F073EC14F0000EE5
:101418000001C76F000EC66F0001C6290F0E00013C
:10142800C759D8B004D00001C64BC72BF5D7000167
:10143800D8510D0D0C0EF326000EF422200EF324C5
:10144800D96E020EF420DA6E000EDF6E0001D82B82
:101458006BD70001FC694E684F680001FD69FE69A1
:101468004E0E0001656F000E0001666FFD0E000153
:10147800676F000E0001686F33EC2BF03D9238D097
:10148800020E426401D034D03DA232D020EE01F0E9
:101498002E50D9262F50DA225250DE18D8A428D040
:1014A8004750D8B425D0140EFBEC25F062EC24F09C
:1014B8001FD02EC0D9FF2FC0DAFFDF50010AD8B4E1
:1014C80021D5030AD8B424D6010AD8B4C8D6040A48
:1014D800D8B4D6D70DD02B50030B000AD8B452EF8E
:1014E80001F0010AD8B4E5D7020AD8B41DEF06F016
:1014F8003DA41AEC2EF0FBEC2AF060C0C1F061C0EC
:10150800C2F062C0C3F063C0C4F0000E0001D86F1F
:10151800030E0001D86501D067D00001D851080D2D
:10152800030EF326000EF422000EF324D96E020EE9
:10153800F420DA6EDF50D8B454D00001D851080D29
:10154800040EF326000EF422000EF324D96E020EC8
:10155800F420DA6EDECFB0F0DECFB1F0DECFB2F03D
:10156800DECFB3F00001B01FB11FB21FB31FB02B05
:10157800000EB123B223B3230001C1510001B025ED
:101588000001B46F0001C2510001B1210001B56F23
:101598000001C3510001B2210001B66F0001C4511E
:1015A8000001B3210001B76F0001B7510BE1210E13
:1015B8000001B45DA10E0001B559070E0001B6592E
:1015C800D8A00FD00001D851080D030EF326000E45
:1015D800F422000EF324D96E020EF420DA6E000E07
:1015E800DF6E0001D82B94D7010177A31200010107
:1015F80077A163D00B0E0101416F01014151010D2B
:10160800440EF324D96E010EF420DA6E000EDF6E5C
:101618000101412B01014151010D440EF324D96E02
:10162800010EF420DA6E110EDF6E0101412B000E5F
:101638000001C96F070E0001C96501D019D000016A
:10164800C951010D7B0EF324D96E010EF420DA6E18
:1016580001014151010D440EF324E16E010EF42005
:10166800E26EDFCFE7FF0101412B0001C92BE2D772
:1016780001014151010D440EF324D96E010EF420ED
:10168800DA6E79C1DFFF0101412B01014151010DE2
:10169800440EF324D96E010EF420DA6E7AC1DFFF0E
:1016A8000101412B830E0001AE6F010E0001AF6FE7
:1016B80030EC29F00101779312008DC1B0F08EC192
:1016C800B1F08FC1B2F090C1B3F00001B01FB11FEB
:1016D800B21FB31FB02B000EB123B223B3230001F6
:1016E800C1510001B0250001B86F0001C2510001CD
:1016F800B1210001B96F0001C3510001B2210001FD
:10170800BA6F0001C4510001B3210001BB6F000191
:10171800BB510BE1610E0001B85DE30E0001B95940
:10172800160E0001BA59D8A01200010177931200D1
:10173800700E0001856F000E0001866FF4EF10F047
:10174800250E00018C19D8B40BD06CC0D9FF6DC020
:10175800DAFF8CC0DFFF00016C4B6D2BF4EF10F04B
:10176800000E00018B6F000E8A6F000E00018E6F55
:10177800000E8D6F0ED000018D8708D000018D817D
:1017880005D000018E8702D000018D8500016E4BC7
:101798006F2B6EC0F6FF6FC0F7FF0800F550200AE8
:1017A800D8B4ECD7030AD8B4ECD70E0AD8B4E3D728
:1017B8001D0AD8B4E9D700018DA702D000018D9584
:1017C8006EC0F6FF6FC0F7FF0800F550AEEC2DF0C5
:1017D800D8A041D0000E00018B6F000E8A6F8AC01E
:1017E80060F08BC061F0000E0001636F0A0E626F3B
:1017F80049EC2DF060C08AF061C08BF0D00E00017A
:10180800766FFF0E0001776F6EC0F6FF6FC0F7FFAF
:101818000800F5500001786F796B000176510001DE
:1018280078270001775100017923000178510001E0
:101838008A270001795100018B2300016E4B6F2B21
:101848006EC0F6FF6FC0F7FF0800F550AEEC2DF044
:10185800D8A01AD0C4D76EC0F6FF6FC0F7FF080033
:10186800F5502A0AD8A410D085C0D9FF86C0DAFF5F
:10187800DECF8AF0DDCF8BF0020E00018527000E47
:10188800862300016E4B6F2B6EC0F6FF6FC0F7FF0B
:101898000800F5502E0AD8A440D000018E8D000112
:1018A8006E4B6F2B6EC0F6FF6FC0F7FF0800F55048
:1018B8002A0AD8A410D085C0D9FF86C0DAFFDF5025
:1018C8000001896F020E00018527000E86230001A2
:1018D8006E4B6F2B17D1000E0001896F13D06EC0AD
:1018E800F6FF6FC0F7FF0800F5CF76F000018951C9
:1018F8000A0DF35000017625D00F0001896F000111
:101908006E4B6F2B6EC0F6FF6FC0F7FF0800F550E7
:10191800AEEC2DF0D8A0F6D0E2D7000E0001896F0A
:10192800F1D000018D8D16D100018D8B00018D8FB6
:1019380011D185C0D9FF86C0DAFFDECF81F0DDCFB7
:1019480082F0020E00018527000E862300018151D6
:1019580000018211D8A406D0E60E0001816FFF0EA7
:101968000001826F000E0001846F000E836F03D0A8
:101978000001834B842B0001835100018125000164
:10198800766F00018451000182210001776F76C0D3
:10199800F6FF77C0F7FFF86A0E0EF76403D0080069
:1019A800F55005D0F6CFE9FFF7CFEAFFEF50000971
:1019B800D8A4DED7000189510001D8B417D089C056
:1019C80076F00001776B76BF77070001835100013D
:1019D800765D0001845100017759D8B007D0000125
:1019E80089510001836F846B83BF840700018A518A
:1019F8000001835D00018B5100018459D8B009D0E2
:101A08000001835100018A5F0001845100018B5B52
:101A180005D0000E00018B6F000E8A6F00018DA7A4
:101A28000AD030D06CC0D9FF6DC0DAFF200EDF6E4F
:101A380000016C4B6D2B00018A07D8A08B070001B1
:101A48008A29F0E100018B29D8B41CD0EBD781C0DA
:101A5800F6FF82C0F7FFF86A6CC0D9FF6DC0DAFFE5
:101A68000E0EF76403D00800F55005D0F6CFE9FF55
:101A7800F7CFEAFFEF50DF6E0001814B822B0001A8
:101A88006C4B6D2B00018307D8A0840700018329C4
:101A9800DEE100018429D8A4DAD700018DB70AD085
:101AA8009FD36CC0D9FF6DC0DAFF200EDF6E000136
:101AB8006C4B6D2B00018A07D8A08B0700018A297F
:101AC800F0E100018B29D8B48BD3EBD785C0D9FFBF
:101AD80086C0DAFFDF5000018C6F020E00018527F7
:101AE800000E86238C0E0001816F000E0001826FAC
:101AF800000E0001846F010E836F5CD7C00E0001D9
:101B08008D1328D06EC0F6FF6FC0F7FF00016E4B33
:101B18006F2B0800F5CF8CF000018C51000AD8B467
:101B28006ED3580AD8B400D73B0AD8B4CFD7070A1F
:101B3800D8B410D00D0AD8B40DD0060AD8B4F1D64E
:101B48001C0AD8B4F6D6060AD8B4D8D70D0AD8B421
:101B5800EDD6C8D7C00E00018D150001766F000EB6
:101B680000018E150001776F000176510001771191
:101B7800D8A419D085C0D9FF86C0DAFFDECF87F098
:101B8800DDCF88F0020E00018527000E86230001B4
:101B980088AF16D0030E00018D130001876D881FD2
:101BA800D8B0882B0DD085C0D9FF86C0DAFFDECF2C
:101BB80087F0DDCF88F0020E00018527000E86230E
:101BC800000189510001D8A463D0000187510001A8
:101BD8008811D8A45DD00001892B5AD0010E0001CC
:101BE8008C6F050E00018C19D8B461D000018C519E
:101BF800020D890EF324F66EFE0EF420F76E09002E
:101C0800F5500001875D0900F55000018859D8A0FA
:101C18004ED000018C2BE5D7010E00018C6F040E0D
:101C280000018C19D8B443D000018C51020D930ED9
:101C3800F324F66EFE0EF420F76E0900F55000014D
:101C4800875D0900F55000018859D8A030D00001FF
:101C58008C2BE5D7010E00018C6F060E00018C1944
:101C6800D8B425D000018C51020D7D0EF324F66EF8
:101C7800FE0EF420F76E0900F5500001875D09009B
:101C8800F55000018859D8A012D000018C2BE5D757
:101C980000018D51C00B000AD8B4A0D7400AD8B4AF
:101CA800D9D7C00AD8B4B8D7400AD8B497D7000152
:101CB8008C51800A0001766F00018951800A000169
:101CC800765DD8B003D089C08CF00DD00001895161
:101CD800800A0001766F00018C51800A0001765D50
:101CE800D8A08CC089F000018A5100018B11D8B4AA
:101CF80014D0030E00018D150001766F000E00014F
:101D08008E150001776F0001765100017711D8B464
:101D180004D000018A07D8A08B0700018EAD21D01E
:101D2800800E000189BF7F0E0001766F00018A5185
:101D38000001895D00018B51800A00017659D8B0F5
:101D48000BD00001895100018A5F000E000189BF94
:101D5800FF0E00018B5B05D0000E00018B6F000E9B
:101D68008A6FC40E0001766F080E0001776F8DC070
:101D780078F08EC079F000017651000178170001E3
:101D8800775100017917400E0001781910E1080E0B
:101D980000017919D8A40BD000018A5100018B11D8
:101DA800D8B436D000018A07D8A08B0731D0C00E2E
:101DB8000001766F080E0001776F8DC078F08EC035
:101DC80079F0000176510001781700017751000180
:101DD8007917800E000178191BE1080E00017919A6
:101DE800D8A416D000018BBF0ED000018B5105E19D
:101DF800030E00018A5DD8A006D00001FE0E8A27D6
:101E0800FF0E8B2305D0000E00018B6F000E8A6F2A
:101E1800800E00018CBF7F0E0001766F00018A5191
:101E280000018C5D00018B51800A00017659D8B001
:101E38000BD000018C5100018A5F000E00018CBF9D
:101E4800FF0E00018B5B05D0000E00018B6F000EAA
:101E58008A6F00018DA570D0030E00018D15000159
:101E6800766F000E00018E150001776F0001765124
:101E780000017711D8B40AD06CC0D9FF6DC0DAFF61
:101E88002D0E0CD000016C4B6D2B42D000018DA1A2
:101E980007D06CC0D9FF6DC0DAFF200EDF6EF2D715
:101EA800C00E0001766F080E0001776F8DC078F0C4
:101EB8008EC079F000017651000178170001775142
:101EC80000017917800E0001781922E1080E00013F
:101ED8007919D8A41DD06CC0D9FF6DC0DAFF300EB7
:101EE800DF6E00016C4B6D2B00018DBB05D0000E21
:101EF80000017C6F780E04D0000E00017C6F580E34
:101F08007B6F6CC0D9FF6DC0DAFF7BC0DFFFBAD72B
:101F180000018A5100018B11D8B43CD16CC0D9FFA3
:101F28006DC0DAFF300EDF6E00016C4B6D2B0001C7
:101F38008A07D8A08B07ECD700018A5100018B11C2
:101F4800D8B416D000018DB713D06CC0D9FF6DC0BE
:101F5800DAFF200EDF6E00016C4B6D2B00018A0743
:101F6800D8A08B0700018A5100018B11D8A4EDD7A6
:101F7800030E00018D150001766F000E00018E150D
:101F88000001776F0001765100017711D8B40AD0AB
:101F98006CC0D9FF6DC0DAFF2D0E0CD000016C4B60
:101FA8006D2B0AD000018DA107D06CC0D9FF6DC080
:101FB800DAFF200EDF6EF2D7C00E0001766F080E32
:101FC8000001776F8DC078F08EC079F000017651EE
:101FD800000178170001775100017917400E0001C0
:101FE80078190CE1080E00017919D8A407D06CC043
:101FF800D9FF6DC0DAFF300EDF6EC9D0C00E000108
:10200800766F080E0001776F8DC078F08EC079F07A
:102018000001765100017817000177510001791706
:10202800800E0001781904E1080E00017919D8A47E
:10203800B1D06CC0D9FF6DC0DAFF300EDF6E000181
:102048006C4B6D2B00018DBB05D0000E00017E6F1F
:10205800780E04D0000E00017E6F580E7D6F6CC0A4
:10206800D9FF6DC0DAFF7DC0DFFF91D00001895133
:10207800020D890EF324F66EFE0EF420F76E0900A9
:10208800F5CF62F00A00F5CF63F087C060F088C032
:1020980061F084EC2AF060C067F061C068F0000E5F
:1020A80000016A6F0A0E696FC9EC2BF000016751D5
:1020B80055D087C060F088C061F000018951020DD9
:1020C800930EF324F66EFE0EF420F76E0900F5CF9A
:1020D80062F00A00F5CF63F084EC2AF00001605149
:1020E8000F0B00017A6F00018DBB05D0980E00011F
:1020F8007F6FFF0E04D0870E00017F6FFF0E000177
:10210800806F00017A51010D7FC076F080C077F0B2
:10211800F35000017627F4500001772376C0F6FFCC
:1021280077C0F7FF0800F5CF8CF02BD087C060F0A0
:1021380088C061F000018951020D7D0EF324F66E0E
:10214800FE0EF420F76E0900F5CF62F00A00F5CF15
:1021580063F084EC2AF000016051070B300F000196
:102168008C6F0FD000018D51C00B000AD8B47ED7F8
:10217800400AD8B4DBD7C00AD8B49BD7400AD8B431
:1021880075D76CC0D9FF6DC0DAFF8CC0DFFF0001C6
:102198006C4B6D2B0001890700018929D8A4E2D76F
:1021A80000018DA71DD000018BBF1AD000018B51F3
:1021B80004E100018A05D8A013D06CC0D9FF6DC016
:1021C800DAFF200EDF6E00016C4B6D2B00018A07D1
:1021D800D8A08B0700018A5100018B11D8A4EDD734
:1021E8006EC0F6FF6FC0F7FF00016E4B6F2B080043
:1021F800F5CF8CF000018C51D8A4A4EF0BF06CC083
:10220800D9FF6DC0DAFF000EDF6E120081A2F080E8
:1022180043A012D00101385105E1800E0101375D5C
:10222800D8A007D0000E0101386F000E376F439019
:1022380003D00101374B382B5368000E0001676F3C
:10224800010E0001676501D012D000016751500DE1
:10225800000EF324D96E030EF420DA6EDF50D8B4E2
:1022680003D067C053F003D00001672BE9D7020EF3
:10227800536033D3010E0001686F5350500D010EA7
:10228800F326000EF422000EF324D96E030EF42078
:10229800DA6E0301DFBC03D0000E0001686F000E88
:1022A8002B6E000E336E5350500D020EF326000EA7
:1022B800F422000EF324D96E030EF420DA6EDF50F8
:1022C800CC0B0001666F55D25350500D060EF32605
:1022D800000EF422000EF324D96E030EF420DA6EF9
:1022E800DE28D8A40FD05350500D070EF326000E49
:1022F800F422000EF324D96E030EF420DA6EDE28E1
:10230800D8B42B842B8E000168510001D8B429D091
:102318005350500D040EF326000EF422000EF32441
:10232800D96E030EF420DA6EDF50346E5350500D20
:10233800050EF326000EF422000EF324D96E030EC8
:10234800F420DA6EDF50356E5350500D080EF32628
:10235800000EF422000EF3242C6E030EF4202D6ED2
:1023680096D15350500D080EF326000EF422000E9D
:10237800F324D96E030EF420DA6EDF50346E535016
:10238800500D090EF326000EF422000EF324D96E28
:10239800030EF420DA6EDF50356E5350500D0A0EDE
:1023A800A4D15350500D000EF324D96E030EF4201F
:1023B800DA6EDF50EB0F306E5350500D120ECBD14A
:1023C8002B8E000168510001D8B437D05350500DFE
:1023D800040EF326000EF422000EF324D96E030E29
:1023E800F420DA6EDF50346E5350500D050EF3268C
:1023F800000EF422000EF324D96E030EF420DA6ED8
:10240800DF50356E5350500D0E0EF326000EF42299
:10241800000EF3242C6E030EF4202D6E5350500D35
:10242800000EF324D96E030EF420DA6EDF50E70FA6
:10243800306E5350500D160E8ED15350500D0E0E57
:10244800F326000EF422000EF324D96E030EF420B6
:10245800DA6EDF50346E5350500D0F0EF326000E17
:10246800F422000EF324D96E030EF420DA6EDF5046
:10247800356E5350500D100EF326000EF422000E48
:10248800F3242C6E030EF4202D6E5350500D000EC5
:10249800F324D96E030EF420DA6EDF50E50F306EA8
:1024A8005350500D180E57D12B842B8E010E336EBE
:1024B8005350500D040EF326000EF422000EF324A0
:1024C800D96E030EF420DA6EDF50346E5350500D7F
:1024D800050EF326000EF422000EF324D96E030E27
:1024E800F420DA6EDF50356E5350500D060EF32689
:1024F800000EF422000EF3242C6E030EF4202D6E31
:102508005350500D000EF324D96E030EF420DA6EEA
:10251800DF50F50F1CD15350500D060EF326000E58
:10252800F422000EF324D96E030EF420DA6EDE28AE
:10253800D8A40FD05350500D070EF326000EF422E6
:10254800000EF324D96E030EF420DA6EDE28D8B418
:102558002B842B8E010E336E000168510001D8A424
:1025680037D05350500D080EF326000EF422000EFB
:10257800F324D96E030EF420DA6EDF50346E535014
:10258800500D090EF326000EF422000EF324D96E26
:10259800030EF420DA6EDF50356E5350500D0A0EDC
:1025A800F326000EF422000EF3242C6E030EF42002
:1025B8002D6E5350500D000EF324D96E030EF420E7
:1025C800DA6EDF50F10F306E5350500D0C0EC3D041
:1025D8005350500D040EF326000EF422000EF3247F
:1025E800D96E030EF420DA6EDF50346E5350500D5E
:1025F800050EF326000EF422000EF324D96E030E06
:10260800F420DA6EDF50356E5350500D080EF32665
:10261800000EF422000EF3242C6E030EF4202D6E0F
:102628005350500D000EF324D96E030EF420DA6EC9
:10263800DF50F30F306E5350500D0A0E8CD02B8E96
:10264800010E336E000168510001D8B42FD05350E9
:10265800500D040EF326000EF422000EF324D96E5A
:10266800030EF420DA6EDF50346E5350500D050E11
:10267800F326000EF422000EF324D96E030EF42084
:10268800DA6EDF50356E5350500D0D0E60D6535034
:10269800500D000EF324D96E030EF420DA6EDF50CD
:1026A800ED0F306E5350500D100E55D05350500D45
:1026B8000D0EF326000EF422000EF324D96E030E3D
:1026C800F420DA6EDF50346E5350500D0E0EF326A0
:1026D800000EF422000EF324D96E030EF420DA6EF5
:1026E800DF50356E5350500D0F0EF326000EF422B6
:1026F800000EF3242C6E030EF4202D6E52D6535088
:10270800500D060EF326000EF422000EF324D96EA7
:10271800030EF420DA6EDE28D8A40FD05350500DE3
:10272800070EF326000EF422000EF324D96E030ED2
:10273800F420DA6EDE28D8B42B845350500D000EE6
:10274800F324D96E030EF420DA6EDF50F60F306EE4
:102758005350500D080EF326000EF422000EF324F9
:102768002E6E030EF4202F6E19D01AEC2EF0000EE8
:10277800120000016651080AD8B4C1D7880AD8B433
:1027880093D6080AD8B4C7D6040AD8B458D7440A86
:10279800D8B49AD5040AD8B413D6E7D75350500DF5
:1027A800010EF326000EF422000EF324D96E030E58
:1027B800F420DA6E0301DFA613D01AEC2EF0000E17
:1027C8001200FC0E2B162ED02B50FC0B01092B6E81
:1027D80029D0030E2B1226D01AEC2EF0000E120070
:1027E8005350500D010EF326000EF422000EF32470
:1027F800D96E030EF420DA6EDF50070B0001606F0C
:10280800616B00016151000AD8A4E6D7000160514C
:10281800000AD8B4DED7010AD8B4D3D7020AD8B48C
:10282800D3D7DAD7FF0E0001606FFF0E0001616F8A
:102838005350500D000EF324D96E030EF420DA6EB7
:10284800DF500001626F636B000160510001622775
:102858000001615100016323000E0001646F030E43
:102868000001656F00016251000164270001635196
:10287800000165235350500DF35000016425D96EB3
:10288800F45000016521DA6EDF50326E5350500D5E
:10289800000EF324D96E030EF420DA6EDF50000127
:1028A800606F5350500D000E0001616F030E000160
:1028B800626FF35000016127F450000162230001A8
:1028C800605100016125D96E0001000E00016221EE
:1028D800DA6EDF50316E010E1200000E1200000E8B
:1028E80000019C6F000E00019B6F00017EA503D0C4
:1028F800010E0001816F00017EA703D0000E0001C8
:10290800826F00017E51030BE806D8A402D0030EA3
:1029180007D000017E51030B0009D8A403D0010E93
:102928000001996F4A500001831911E14B500001D1
:102938008419D8A40CD04A2803E14B28D8B407D06E
:10294800050E00019A6F0001998D010E04D0070E43
:1029580000019A6F000E0001986F00018151D8B4F0
:1029680002D0020E01D0080E00019A270001825100
:10297800D8B402D0020E01D0080E00019A27000137
:102988007EAB05D000017EB502D00001998B000115
:102998007E51030B030AD8A40ED0000E0001996FD4
:1029A800070E00019A6F000E0001986F010E0001DA
:1029B800826F00017E9B9CC062F00001636B9AC02D
:1029C80064F0FAEC2BF000019C2B9CC062F0000133
:1029D800636B00019A51000187250001646FFAECCE
:1029E8002BF000019C2B9CC062F00001636B99C026
:1029F80064F0FAEC2BF000019C2B00017E51030BD4
:102A0800030AD8A416D09CC062F00001636B800E44
:102A18000001646FFAEC2BF000019C2B9CC062F063
:102A28000001636B3DC164F0FAEC2BF001013D2B12
:102A38009CD000018151D8B40ED000018251D8B485
:102A48000AD09CC062F00001636B880E0001646FBD
:102A5800FAEC2BF02DD000018151D8B40ED0000132
:102A68008251D8A40AD09CC062F00001636BC80EE2
:102A78000001646FFAEC2BF01BD000018151D8A43F
:102A88000ED000018205D8A40AD09CC062F00001D3
:102A9800636B8C0E0001646FFAEC2BF009D09CC0BC
:102AA80062F00001636BCC0E0001646FFAEC2BF04E
:102AB80000019C2B9CC062F00001636B3DC164F077
:102AC800FAEC2BF001013D2B00019C2B9CC062F01D
:102AD8000001636B83C064F0FAEC2BF000019C2BBF
:102AE8009CC062F00001636B84C064F0FAEC2BF0C8
:102AF80000019C2B00017EA515D09CC062F000014E
:102B0800636BFF0E0001646FFAEC2BF000019C2B45
:102B18009CC062F00001636BFF0E0001646FFAEC69
:102B28002BF023D000018151D8B422D09CC062F090
:102B38000001636B7FC0D9FF80C0DAFFDF5000015E
:102B4800646FFAEC2BF000019C2B9CC062F0000132
:102B5800636B000120EE01F07F51D9268051DA2203
:102B6800DF500001646FFAEC2BF000019C2B21D0A0
:102B7800000E00019B6F070E00019B6501D019D064
:102B88009CC062F00001636B00019B51010DF35082
:102B980000017F25D96EF45000018021DA6EDF50E4
:102BA8000001646FFAEC2BF000019C2B00019B2BB9
:102BB800E2D7000198510001D8A414D09CC062F05B
:102BC8000001636B4AC064F0FAEC2BF000019C2B07
:102BD8009CC062F00001636B4BC064F0FAEC2BF010
:102BE80000019C2B00018251D8B415D09CC062F022
:102BF8000001636B4CC064F0FAEC2BF000019C2BD5
:102C08009CC062F00001636B4DC064F0FAEC2BF0DD
:102C180000019C2B21D0000E00019B6F070E0001C4
:102C28009B6501D019D09CC062F00001636B000164
:102C38009B51010DF35001012F25D96EF45001016C
:102C48003021DA6EDF500001646FFAEC2BF00001DE
:102C58009C2B00019B2BE2D7000E00019B6F18D024
:102C68009CC062F00001636B00019B51010DF350A1
:102C780000018525D96EF45000018621DA6EDF50F7
:102C88000001646FFAEC2BF000019C2B00019B2BD8
:102C98000001875100019B5DD8A0E2D74380000165
:102CA8007EAB08D000017EB505D0050E00019B6FF4
:102CB800438204D0010E00019B6F43929BC062F0D7
:102CC800370E7FEC2DF0FBEC2AF060C090F061C06D
:102CD80091F062C092F063C093F081A2F08043B09B
:102CE80005D043A457D04394000E1200FBEC2AF001
:102CF80060C094F061C095F062C096F063C097F030
:102D080090C088F091C089F092C08AF093C08BF08F
:102D18000001881F891F8A1F8B1F882B000E89239B
:102D28008A238B23000194510001882500018C6FB0
:102D3800000195510001892100018D6F0001965114
:102D480000018A2100018E6F0001975100018B213B
:102D580000018F6F00018F5100018E1108E1210ED3
:102D680000018C5D4E0E00018D59D8A0B6D70BEC32
:102D780020F04C0E0001656F000E0001666F4A0ED0
:102D88000001676F000E0001686F33EC2BF0439071
:102D9800000E1200010E12000001A751070B0001DE
:102DA800AC6F0001AC514F18D8A433D0800E00018D
:102DB800A66502D0000E1200000E366E368A00019B
:102DC800A8B102D0369601D03686A6C050F0A7C06A
:102DD80051F0010E396E010E3A6E500E376E000E2C
:102DE800386EFDC03BF0FEC03CF020EE36F000EE41
:102DF8007EF0060EDBCFEBFFE806FCE2440E000196
:102E0800856F010E0001866F41C187F073EC14F0E5
:102E18001200ACC0A9F0010E0001AA6F0001A92B95
:102E280003D00001D890AA370001A92FFAD70001D2
:102E3800AA51010142150009D8B480D00001AC5153
:102E4800010D0A0EF324D96E010EF420DA6E020E7B
:102E5800DF642DD00001AC51010D0A0EF324D96EA8
:102E6800010EF420DA6E000EDF6EACC0A9F0010E80
:102E78000001AA6F0001A92B03D00001D890AA373E
:102E88000001A92FFAD70001AA51FF0A0101421730
:102E98000001AC51010D120EF324D96E010EF4207D
:102EA800DA6E000EDF6E62EC24F0000E1200000EE7
:102EB800366E368A0001A8B102D0369601D0368621
:102EC800000E506EACC051F0010E396E010E3A6E14
:102ED800500E376E000E386EFDC03BF0FEC03CF061
:102EE80020EE36F000EE7EF0060EDBCFEBFFE806B4
:102EF800FCE2440E0001856F010E0001866F41C19E
:102F080087F073EC14F00009D8A40BD00001AC5181
:102F1800010D0A0EF324D96E010EF420DA6EDF2AB1
:102F2800C4D70001AC51010D0A0EF324D96E010E6D
:102F3800F420DA6E000EDF6E010E1200000E0001A2
:102F4800AD6F070E0001AD6501D0DDD00001AD51B8
:102F5800010D120EF324D96E010EF420DA6EDF5043
:102F68000001A96FACC0AAF0010E0001AB6F00010F
:102F7800AA2B03D00001D890AB370001AA2FFAD7AB
:102F88000001AB510001A9150009D8B4B9D000015E
:102F9800AD51010D0A0EF324D96E010EF420DA6E3C
:102FA800020EDF6465D00001AD51010D0A0EF32455
:102FB800D96E010EF420DA6E000EDF6EADC0A9F0F6
:102FC800010E0001AA6F0001A92B03D00001D890BF
:102FD800AA370001A92FFAD70001AA51FF0A010157
:102FE80042170001AD51010D120EF324D96E010EE6
:102FF800F420DA6E000EDF6E4750D8B403D062ECCE
:1030080024F034D0000E0101416F01014151010D3E
:10301800440EF324D96E010EF420DA6E070EDF6E2B
:103028000101412B01014151010D440EF324D96ED8
:10303800010EF420DA6E52C0DFFF0101412B0101BD
:1030480091699269910E00019D6F010E00019E6FBA
:10305800000E00019F6F000E0001A06F010E00011D
:10306800A16F000E0001A26F5AEC27F0000E1200AB
:10307800000E366E368A0001A8B102D0369601D00D
:103088003686000E506EADC051F0010E396E010E3D
:103098003A6E500E376E000E386EFDC03BF0FEC023
:1030A8003CF020EE36F000EE7EF0060EDBCFEBFFB4
:1030B800E806FCE2440E0001856F010E0001866FF0
:1030C80041C187F073EC14F00009D8A40CD00001BA
:1030D800AD51010D0A0EF324D96E010EF420DA6EFB
:1030E800DF2A000E12000001AD51010D0A0EF32473
:1030F800D96E010EF420DA6E000EDF6E010E12009A
:103108000001AD2B1ED7020E4718D8B469D0000EA7
:10311800366E368A0001A8B102D0369601D03686BE
:103128004704D8B42ED0000E0001AD6F070E000181
:10313800AD6501D01FD001014251D8B418D0ADC03F
:10314800A9F0010E0001AA6F000E0001AB6F00018B
:10315800A92B04D0D8900001AA37AB370001A92FBA
:10316800F9D70001AA510001AB11D8A403D000017E
:10317800AD2BDCD7080E0001AD6103D0ADC051F016
:1031880002D0000E516E000E506E010E396E010E07
:103198003A6E500E376E000E386EFDC03BF0FEC022
:1031A8003CF020EE36F000EE7EF0060EDBCFEBFFB3
:1031B800E806FCE2440E0001856F010E0001866FEF
:1031C80041C187F073EC14F00009D8A404D00101C0
:1031D8000A2B000E1200000E01010A6F010E1200E8
:1031E800000E366E368A0001A8B102D0369601D09C
:1031F8003686ACC051F0000E506E010E396E010ECD
:103208003A6E500E376E000E386EFDC03BF0FEC0B1
:103218003CF020EE36F000EE7EF0060EDBCFEBFF42
:10322800E806FCE2440E0001856F010E0001866F7E
:1032380041C187F073EC14F00009D8A404D001014F
:103248000A2B000E1200000E01010A6F010E120077
:1032580001013F51D8B40BD001014F51D8B407D068
:103268003D8644C0EFF1060E0001F56F04D0020E52
:103278000001F56F3D960001DB510001D8B45BD128
:10328800000E0001F66F070E0001F66501D019D097
:103298000001F651010DF3500001D925D96EF45003
:1032A8000001DA21DA6E0001F651010D1A0EF3243D
:1032B800E16E010EF420E26EDFCFE7FF0001F62B8E
:1032C800E2D7D5EC24F00001F76F0001F729D8A464
:1032D80042D054C044F1020E0101456F0101466914
:1032E800010147690101486901014969FDC04AF1C5
:1032F800FEC04BF14EC04CF14FC04DF144C04EF1F1
:10330800442A000E366E368A0001DCB102D03696A9
:1033180001D03686D9C037F0DAC038F0000E396EE1
:10332800010E3A6EFDC03BF0FEC03CF03D9620EE2B
:1033380036F000EE7EF0060EDBCFEBFFE806FCE28F
:10334800440E0001856F010E0001866F41C187F0B0
:1033580073EC14F012000001F7510D0D0C0EF3265A
:10336800000EF422200EF324D96E020EF420DA6E39
:103378000201DFA6AED701013F51D8B411D0000138
:10338800F7510D0D020EF326000EF422200EF32441
:10339800D96E020EF420DA6EDECF31F1DDCF32F1D4
:1033A800040E0101446FF5C045F10001F7510D0D00
:1033B800200EF324D96E020EF420DA6EDF500101DC
:1033C800466F0001F7510D0D010EF326000EF42291
:1033D800200EF324D96E020EF420DA6EDF500101BC
:1033E800476F0001F7510D0D020EF326000EF4226F
:1033F800200EF324D96E020EF420DA6EDF5001019C
:10340800486F0001F7510D0D030EF326000EF4224C
:10341800200EF324D96E020EF420DA6EDF5001017B
:10342800496FFDC04AF1FEC04BF14EC04CF14FC090
:103438004DF144C04EF1442A0001F7510D0D200E04
:10344800F324D96E020EF420DA6EDECFA4F0DDCFBD
:10345800A5F00001F7510D0D020EF326000EF4221F
:10346800200EF324D96E020EF420DA6EDECFA6F019
:10347800DDCFA7F0DCC0A8F0D0EC16F00009D8A486
:1034880002D03D9612003DA61200FBEC2AF060C067
:10349800E5F061C0E6F062C0E7F063C0E8F06EEC0A
:1034A8002EF00009D8A490EC2EF03DA61200FBECFB
:1034B8002AF060C0E9F061C0EAF062C0EBF063C0D6
:1034C800ECF0E5C0DDF0E6C0DEF0E7C0DFF0E8C014
:1034D800E0F00001DD1FDE1FDF1FE01FDD2B000E07
:1034E800DE23DF23E0230001E9510001DD2500018F
:1034F800E16F0001EA510001DE210001E26F0001E5
:10350800EB510001DF210001E36F0001EC510001E4
:10351800E0210001E46F0001E4510BE1210E0001FC
:10352800E15DA10E0001E259070E0001E359D8A0A0
:10353800B6D73D961200040E0101446FF5C045F15F
:10354800FDC046F1FEC047F1D9C0D9FFDAC0DAFFA5
:10355800DF500101486F000120EE01F0D951D92652
:10356800DA51DA22DF500101496FFDC04AF1FEC08D
:103578004BF14EC04CF14FC04DF144C04EF1442ABE
:10358800D9C0D9FFDAC0DAFFDF500101316F00017D
:1035980020EE01F0D951D926DA51DA22DF500101A3
:1035A800326FD9C0D9FFDAC0DAFFDF50506E0001A0
:1035B80020EE01F0D951D926DA51DA22DF50516EC6
:1035C800FDC0A4F0FEC0A5F050C0A6F051C0A7F001
:1035D800DCC0A8F0D0EC16F00009D8A402D03D96C3
:1035E80012003DA61200FBEC2AF060C0EDF061C0AD
:1035F800EEF062C0EFF063C0F0F06EEC2EF0000960
:10360800D8A490EC2EF03DA61200FBEC2AF060C086
:10361800F1F061C0F2F062C0F3F063C0F4F0EDC005
:10362800DDF0EEC0DEF0EFC0DFF0F0C0E0F000014A
:10363800DD1FDE1FDF1FE01FDD2B000EDE23DF2373
:10364800E0230001F1510001DD250001E16F0001D7
:10365800F2510001DE210001E26F0001F351000187
:10366800DF210001E36F0001F4510001E0210001B6
:10367800E46F0001E4510BE1210E0001E15DA10EB0
:103688000001E259070E0001E359D8A0B6D73D96CC
:1036980012000101A46F030E0101A36F0001F905D7
:1036A800D8A414D0B1EC1EF006D06EEC2EF00009B0
:1036B800D8A490EC2EF0010177B3F7D7010177A1D8
:1036C80003D0010178511200FF0E12000001F951D8
:1036D8000001D8A4DDD10101A429D8B406D02AD08C
:1036E8000101A32F02D0FF0E120052C093F1010E68
:1036F8000101946F956B966B976B0101932B06D024
:10370800D890010194379537963797370101932F51
:10371800F7D794C1D9F095C1DAF096C1DBF097C11B
:10372800DCF00A0E65EC21F00009D8B4D9D7000EF8
:103738000101A46F0101A4510E0D090EF326000E1C
:10374800F422000EF324D96E040EF420DA6EDECFD4
:1037580091F1DDCF92F10101A4510E0D010EF32676
:10376800000EF422000EF324D96E040EF420DA6E53
:10377800DF50506E0101A4510E0D020EF326000E0B
:10378800F422000EF324D96E040EF420DA6EDF5012
:10379800516EBDEC29F00001FC6F0001FC29D8A492
:1037A8000AD0F0EC2CF00001FC6F0001FC29D8A431
:1037B80002D0FF0E12000001FC510D0D0C0EF32675
:1037C800000EF422200EF324D96E020EF420DA6ED5
:1037D800000EDF6E0101A4510E0D090EF326000E36
:1037E800F422000EF324D96E040EF420DA6E0001E0
:1037F800FC510D0D200EF324E16E020EF420E26E52
:10380800DECFE6FFDDCFE5FF0101A4510E0D010E6D
:10381800F326000EF422000EF324D96E040EF420D1
:10382800DA6E0001FC510D0D020EF326000EF42293
:10383800200EF324E16E020EF420E26EDFCFE7FFE4
:103848000101A4510E0D020EF326000EF422000E03
:10385800F324D96E040EF420DA6E0001FC510D0D2C
:10386800030EF326000EF422200EF324E16E020E5E
:10387800F420E26EDFCFE7FF0001FC510D0D0C0EC6
:10388800F326000EF422200EF324D96E020EF42043
:10389800DA6E0201DF860001FC510D0D0C0EF326D5
:1038A800000EF422200EF324D96E020EF420DA6EF4
:1038B8000201DF820001FC510D0D0C0EF326000EF3
:1038C800F422200EF324D96E020EF420DA6E0201DF
:1038D800DF8A0001FC510D0D0C0EF326000EF422B8
:1038E800200EF324D96E020EF420DA6E0201DF8076
:1038F8000101A4510E0D000EF324D96E040EF4201C
:10390800DA6EDF50ECEC2DF00001FC510D0D200EAD
:10391800F324D96E020EF420DA6EDECFFDF0DDCF8F
:10392800FEF050685168500E0001656F000E0001EE
:10393800666FFD0E0001676F000E0001686F33ECC3
:103948002BF0000E0101416F01014151010D440EA0
:10395800F324D96E010EF420DA6E010EDF6E010138
:10396800412B01014151010D440EF324D96E010E82
:10397800F420DA6E40C1DFFF0101412B0001FC5148
:103988000D0D200EF32400019D6F020EF42000019E
:103998009E6F0001FC510D0D020EF326000EF4225D
:1039A800200EF32400019F6F020EF4200001A06F87
:1039B800010E0001A16F080E0001A26F5AEC27F05A
:1039C800FBEC2AF060C09BF161C09CF162C09DF1E4
:1039D80063C09EF14AD06EEC2EF00009D8A490EC9A
:1039E8002EF0FBEC2AF060C09FF161C0A0F162C02C
:1039F800A1F163C0A2F19BC193F19CC194F19DC157
:103A080095F19EC196F10101931F941F951F961F72
:103A1800932B000E94239523962301019F510101B6
:103A280093250101976F0101A05101019421010122
:103A3800986F0101A151010195210101996F0101BF
:103A4800A2510101962101019A6F01019A510BE1DE
:103A5800210E0101975DA10E01019859070E010180
:103A68009959D8A002D0FF0E12000001FC510D0D8B
:103A78000C0EF326000EF422200EF324D96E020E4B
:103A8800F420DA6E0201DFA8A6D70001FC5112006B
:103A9800FF0E12004EC0EBF14FC0ECF10101EB51EB
:103AA8000101EC11D8A406D0000E0101ED6F000E43
:103AB8000101EE6F400E0101EB190101EC11D8A4D0
:103AC80006D0000E0101ED6F000E0101EE6F800EB1
:103AD8000101EB190101EC11D8A406D0000E010177
:103AE800ED6F000E0101EE6FED0E0101E36F010EA7
:103AF8000101E46FEE0E0101E56F010E0101E66FB1
:103B080081A402D0010E01D0000E0001F86FF96BFC
:103B1800010133510001F81906E101013451000196
:103B2800F919D8B483D081A404D00001F86BF82B1C
:103B380002D00001F86B0001F8510101336F346BBA
:103B480081B474D00B0E0101416F000E0101E86FC2
:103B5800000EE76F930E00016C6F010E00016D6F90
:103B68009B0E00016E6FFE0E00016F6F9C0E000130
:103B7800706F020E0001716F39C172F03AC173F0B3
:103B8800EDC174F00001756B9CEC0BF0F30E0001B5
:103B9800616FFF0E0001626FE9EC28F0930E0001DF
:103BA800616F010E0001626FE9EC28F018D0930EE6
:103BB8000101E725D96E010E0101E821DA6E010144
:103BC8004151010D440EF324E16E010EF420E26E22
:103BD800DFCFE7FF0101412B0101E74BE82B930EF3
:103BE8000101E725D96E010E0101E821DA6EDF50E7
:103BF800D8A4DDD701014151010D440EF324D96E3B
:103C0800010EF420DA6E000EDF6E0101412B010176
:103C1800394B3A2BE3C1D9F0E4C1DAF0000E0001C8
:103C2800DB6F000E0001DC6F2CEC19F081A002D0D4
:103C3800010E01D0000E0001F86FF96B010135513A
:103C48000001F81906E1010136510001F919D8B44B
:103C5800120081A004D00001F86BF82B02D00001FB
:103C6800F86B0001F8510101356F366B81B0120015
:103C78000B0E0101416F000E0101EA6F000EE96FA2
:103C8800BB0E00016C6F010E00016D6F9B0E0001F1
:103C98006E6FFE0E00016F6F9C0E0001706F020EBA
:103CA8000001716F3BC172F03CC173F0EEC174F05A
:103CB8000001756B9CEC0BF0F30E0001616FFF0EB9
:103CC8000001626FE9EC28F0BB0E0001616F010E84
:103CD8000001626FE9EC28F018D0BB0E0101E9255C
:103CE800D96E010E0101EA21DA6E01014151010D7F
:103CF800440EF324E16E010EF420E26EDFCFE7FFFD
:103D08000101412B0101E94BEA2BBB0E0101E92519
:103D1800D96E010E0101EA21DA6EDF50D8A4DDD791
:103D280001014151010D440EF324D96E010EF42016
:103D3800DA6E000EDF6E0101412B01013B4B3C2B7B
:103D4800E5C1D9F0E6C1DAF0000E0001DB6F000E24
:103D58000001DC6F2CEC19F0120001017791020EC2
:103D68004718D8A4F7D0010177B333D0FBEC2AF079
:103D780060C08DF161C08EF162C08FF163C090F1B7
:103D8800000E01017A6F000E796F000E0001F86FC6
:103D9800070E0001F86501D017D00001F851010D98
:103DA800F00EF324D96E010EF420DA6E0001F851FA
:103DB800010D7B0EF324E16E010EF420E26EDFCFDD
:103DC800E7FF0001F82BE4D7010177830101779120
:103DD80012000101795101017A11D8B412004E5034
:103DE8000101791905E14F5001017A19D8B412007F
:103DF8000B0E0101416F01014151010D440EF324E5
:103E0800D96E010EF420DA6E000EDF6E0101412B2F
:103E180001014151010D440EF324D96E010EF42025
:103E2800DA6E110EDF6E0101412B000E0001F86FF2
:103E3800070E0001F86501D019D00001F851010DF5
:103E4800F00EF324D96E010EF420DA6E010141510F
:103E5800010D440EF324E16E010EF420E26EDFCF73
:103E6800E7FF0101412B0001F82BE2D70101415185
:103E7800010D440EF324D96E010EF420DA6E4EC003
:103E8800DFFF0101412B01014151010D440EF324D3
:103E9800D96E010EF420DA6E4FC0DFFF0101412B0D
:103EA800000E0001F86F070E0001F86501D017D069
:103EB8000001F851010D7B0EF324D96E010EF42098
:103EC800DA6E0001F851010D1A0EF324E16E010EAD
:103ED800F420E26EDFCFE7FF0001F82BE4D779C1C9
:103EE80050F07AC151F0BDEC29F00101786F010161
:103EF8007829D8B410D0010178510D0D0C0EF32695
:103F0800000EF422200EF324D96E020EF420DA6E8D
:103F1800DF50486E04D08C0E486E50AE4880FDC00D
:103F280091F1FEC092F1E1EC23F00101786F790E76
:103F38000001D96F010E0001DA6F000E0001DB6F7E
:103F4800000E0001DC6F2CEC19F0010177930101E0
:103F580077811200FBEC2AF060C08DF161C08EF110
:103F680062C08FF163C090F1000E516E000E506E6A
:103F78000B0E0101416F01014151010D440EF32463
:103F8800D96E010EF420DA6E000EDF6E0101412BAE
:103F980001014151010D440EF324D96E010EF420A4
:103FA800DA6E100EDF6E0101412B000E0001F86F72
:103FB800070E0001F86501D019D00001F851010D74
:103FC800F00EF324D96E010EF420DA6E010141518E
:103FD800010D440EF324E16E010EF420E26EDFCFF2
:103FE800E7FF0101412B0001F82BE2D7500E000139
:103FF800D96F000E0001DA6F000E0001DB6F000EB2
:104008000001DC6F2CEC19F00101778312008C9E03
:10401800030E0001736F000E746F000E756F000EB3
:10402800766F22D09A0E00016B6F020E6C6F000E35
:104038006D6F000E6E6F00016B07000E6C5B6D5BA1
:104048006E5B00016B29F7E100016C29F4E10001C6
:104058006D29F1E100016E29D8A4EDD7000173079D
:10406800000E745B755B765B00017351000174117F
:104078000001751100017611D8A4D4D78C8E0A0ED0
:104088000001776F000E786F000E796F000E7A6F5F
:1040980022D09A0E00016F6F020E706F000E716FC2
:1040A800000E726F00016F07000E705B715B725B30
:1040B80000016F29F7E100017029F4E1000171297D
:1040C800F1E100017229D8A4EDD700017707000EAD
:1040D800785B795B7A5B0001775100017811000108
:1040E800791100017A11D8A4D4D7070E0001626FA4
:1040F800550E7FEC2DF0540E64EC2DF000017D6F11
:104108007DC06AF0070E00016A17D8A4F4D7000E24
:1041180000017C6F000E7B6FE80E00017B5D030ED3
:1041280000017C59D8B004D000017B4B7C2BF4D71C
:10413800010E0001626F1B0E7FEC2DF0FF0E0001D7
:10414800626F070E7FEC2DF0FF0E0001626F090E03
:104158007FEC2DF0FF0E0001626F030E7FEC2DF057
:10416800FF0E0001626F050E7FEC2DF0000E0001BE
:104178007D6F070E00017D6501D018D000017D51CB
:10418800010DF35001012F25D96EF45001013021A2
:10419800DA6EDF500001626F00017D51020DF350AD
:1041A8000B0F7FEC2DF000017D2BE3D7020E0001F1
:1041B800636F020E626F800E0001646FFAEC2BF0E1
:1041C800020E0001636F030E626F000E0001646F40
:1041D800FAEC2BF0020E0001636F060E626F900E70
:1041E8000001646FFAEC2BF0020E0001636F070EFA
:1041F800626F800E0001646FFAEC2BF0020E000172
:10420800636F080E626F100E0001646FFAEC2BF0FA
:10421800020E0001636F200E626F210E0001646FB1
:10422800FAEC2BF0800E0001626F750E7FEC2DF01A
:10423800400E0001626F7D0E7FEC2DF0600E0001D4
:10424800626F7F0E7FEC2DF0980E0001626F310EC9
:104258007FEC2DF0950E0001626F5D0E7FEC2DF066
:10426800020E0001636F0F0E626F66EC2BF0000107
:104278007D6F00017D51A00BA00AD8A4F1D7E60EEE
:104288000001626F650E7FEC2DF0020E0001636F76
:10429800000E626F030E0001646FFAEC2BF0020E41
:1042A8000001636F010E626F020E0001646FFAEC89
:1042B8002BF0000E0001686F01013E5156EC2CF006
:1042C80012000001F66F010E0001EA6F000EEB6F9D
:1042D800000EEC6F000EED6F52C0F7F0000E0001FB
:1042E800F86F090E0001F86501D00ED00001F851F1
:1042F8000E0D000EF324D96E040EF420DA6EFF0EB4
:10430800DF6E0001F82BEDD7000E3F6E3D80000EEA
:104318000001F86FE5D0F8C0DDF0EAC0DEF0EBC0D0
:10432800DFF0ECC0E0F0EDC0E1F00001DD2B06D0DD
:10433800D8900001DE37DF37E037E1370001DD2FA5
:10434800F7D70001D9510001DE150001E26F000125
:10435800DA510001DF150001E36F0001DB510001B4
:10436800E0150001E46F0001DC510001E1150001D6
:10437800E56F000E0001E2150001E66FF80E00017E
:10438800E3150001E76FFF0E0001E4150001E86F77
:10439800070E0001E5150001E96F0001E651000173
:1043A800E7110001E8110001E911D8B497D0000124
:1043B800F851ECEC2DF0000E0101416F0101415163
:1043C800010D440EF324D96E010EF420DA6E070EA7
:1043D800DF6E0101412B01014151010D440EF3240F
:1043E800D96E010EF420DA6E52C0DFFF0101412BB5
:1043F800010191699269910E00019D6F010E000102
:104408009E6F000E00019F6F000E0001A06F010E4D
:104418000001A16F000E0001A26F5AEC27F0FBEC1F
:104428002AF060C0EEF061C0EFF062C0F0F063C047
:10443800F1F06EEC2EF00009D8A490EC2EF0FBEC15
:104448002AF060C0F2F061C0F3F062C0F4F063C01B
:10445800F5F0EEC0DDF0EFC0DEF0F0C0DFF0F1C047
:10446800E0F00001DD1FDE1FDF1FE01FDD2B000E67
:10447800DE23DF23E0230001F2510001DD250001E6
:10448800E16F0001F3510001DE210001E26F00013C
:10449800F4510001DF210001E36F0001F551000133
:1044A800E0210001E46F0001F651040D410EF324F0
:1044B800F66EFE0EF420F76E0001E1510900F55C7E
:1044C8000001E2510900F5580001E3510900F558CF
:1044D8000001E4510900F558D8B0ABD70001F82B1A
:1044E8001F0E0001F86517D70001F751ECEC2DF00D
:1044F8003D903F501200000E37EC23F00B0EECEC11
:104508002DF00009D8A409D0050E0001616FFF0E37
:104518000001626FE9EC28F0A5D0000E0001D96F08
:10452800080EDA6F000EDB6F000EDC6F0A0E65EC0A
:1045380021F00101A66F000E0101A56F0101A6512E
:104548000101D8B429D0000E0101A76F1FD00101C5
:10455800A7510E0D090EF326000EF422000EF324C7
:10456800D96E040EF420DA6E780EDE1806E1560EC7
:10457800DE18D8A402D0010E01D0000E0101A56FEB
:104588000101A551D8A408D00101A72B0101A6510A
:104598000101A75DD8A0DBD70101A5510101D8B45D
:1045A8001FD0020E98EC2DF0000E0001F96F0101EA
:1045B800A7514DEC1BF0FF0AD8A409D0210E000129
:1045C800616FFF0E0001626FE9EC28F04BD0C40E5A
:1045D8000001616FFE0E0001626FE9EC28F026D041
:1045E800000E98EC2DF0000E0001696F000E00011E
:1045F8006A6F000E6B6F000E6C6F000E6D6F000E11
:1046080043EC2AF00009D8A409D0560E0001616FC6
:10461800FF0E0001626FE9EC28F024D0E90E0001DA
:10462800616FFE0E0001626FE9EC28F0700E000168
:10463800616FFF0E0001626FE9EC28F04E0E000179
:10464800616F000E0001626F020E0001636F00ECE3
:1046580028F0F30E0001616FFF0E0001626FE9ECB4
:1046680028F01200FFD70001836F4E684F68560E7E
:104678000001FE6F780EFD6F000E0001876F060EB9
:104688000001876501D012D0000187510D0D0C0E75
:10469800F326000EF422200EF324D96E020EF42025
:1046A800DA6E000EDF6E0001872BE9D7000E0001DD
:1046B800876F070E0001876501D019D00001875167
:1046C800010D120EF324D96E010EF420DA6E000EDD
:1046D800DF6E00018751010D0A0EF324D96E010E19
:1046E800F420DA6E000EDF6E0001872BE2D7000E91
:1046F8000101426F000E476E000E3E6E000E3D6EC9
:10470800000E0101776F000E0101406F5AEC2EF088
:10471800000E0101416F000E0001846F00018451F9
:10472800870B4009846F00018483000183B103D0A3
:104738000001849502D000018485F00E0001856F88
:10474800010E0001866F84C07EF085C07FF086C0B0
:1047580080F0A9EC2CF04E0E0001656F000E0001F0
:10476800666FFD0E0001676F000E0001686F33EC85
:104778002BF05250ECEC2DF00101408142C082F048
:104788000001823B0101405100018219CF0B8219BF
:104798000101406F0101408D47C082F0000182474E
:1047A8000101405100018219F90B82190101406F82
:1047B800D6CF44F0F090F08612000001696948A451
:1047C80003D0D5EC24F004D048A604D0BDEC29F0E1
:1047D8000001696F00016929D8A404D0F0EC2CF01D
:1047E8000001696F00016929D8B465D000016951D9
:1047F8000D0D0C0EF326000EF422200EF324D96EB4
:10480800020EF420DA6E48C0DFFF48A434D0000E50
:104818000001686F070E0001686501D02CD0000107
:104828006851010D1A0EF324D96E010EF420DA6EC8
:1048380000016851010D040EF326000EF422200E2B
:104848000001666F020E0001676FF35000016627D2
:10485800F45000016723000169510D0DF350000168
:104868006625E16EF45000016721E26EDFCFE7FFB5
:104878000001682BCFD748A611D0000169510D0D52
:10488800020EF326000EF422200EF324D96E020E37
:10489800F420DA6E50C0DEFF51C0DDFF000169511F
:1048A8000D0D200EF324D96E020EF420DA6E91C19C
:1048B800DEFF92C1DDFF000169511200000E010107
:1048C800416F01014151010D440EF324D96E010ECF
:1048D800F420DA6EFF0EDF6E0101412B0101415118
:1048E800010D440EF324D96E010EF420DA6E40C196
:1048F800DFFF0101412B01014151010D440EF32459
:10490800D96E010EF420DA6E000EDF6E0101412B24
:1049180001014151010D440EF324D96E010EF4201A
:10492800DA6E000EDF6E0101412B01014151010DCC
:10493800440EF324D96E010EF420DA6E4D0EDF6EAC
:104948000101412B01014151010D440EF324D96E9F
:10495800010EF420DA6E410EDF6E0101412B0101D8
:104968004151010D440EF324D96E010EF420DA6E84
:1049780042C1DFFF0101412BFD0E00019D6F000EBA
:1049880000019E6F000E00019F6F000E0001A06FD6
:10499800030E0001A16F040E0001A26F5AEC27F06C
:1049A8001200000E0001656F060E0001656501D05A
:1049B8005CD0000165510D0D0C0EF326000EF4229B
:1049C800200EF324D96E020EF420DA6E0201DFAE57
:1049D80049D0000165510D0D0C0EF326000EF4228E
:1049E800200EF324D96E020EF420DA6E0201DFA441
:1049F80039D0000E0001646F070E0001646501D014
:104A08002ED000016451010D1A0EF324D96E010E47
:104A1800F420DA6E00016451010D040EF326000E35
:104A2800F422200E0001616F020E0001626FF35044
:104A380000016127F45000016223000165510D0D4A
:104A4800F35000016125E16EF45000016221E26E2D
:104A5800DE50E618D8A406D00001642BCDD700019B
:104A6800655112000001652B9FD7FF0E1200000E42
:104A780000016A6F000E696FA4AA10D00001695185
:104A880000016225D96E00016A5100016321DA6EC6
:104A98002EEC2DF0DF6E0001694B6A2BFF0E000132
:104AA800646FFF0E0001656F69C066F06AC067F049
:104AB8000001645100016627000165510001672368
:104AC8000001665100016225D96E0001675100019D
:104AD8006321DA6E0D0EDE18D8A4CED700016ABFA6
:104AE80008D000016A51C8E1080E0001695DD8B01C
:104AF800C3D7FF0E0001646FFF0E0001656F69C028
:104B080066F06AC067F00001645100016627000181
:104B18006551000167230001665100016225D96EC5
:104B28000001675100016321DA6E000EDF6E12008A
:104B3800000E0001656F000163AF08D00001626DCF
:104B4800631FD8B0632B010E0001656F000161AFD0
:104B580008D00001606D611FD8B0612B010E000103
:104B6800651B000E0001676F000E666F0001625141
:104B780000016311D8B42CD0010E0001646F06D077
:104B88000001D890623763370001642B000163AFDE
:104B9800F7D70001D89066376737000162510001E6
:104BA800605D0001635100016159D8A00AD000017D
:104BB80062510001605F000163510001615B000107
:104BC80066810001D890633362330001642FE1D716
:104BD800000165510001D8B405D00001666D671F5A
:104BE800D8B0672B66C060F067C061F012000001A2
:104BF8007A6F7AC060F0D650CEEC2CF000017B6F53
:104C08004DD000017B07FBEC2AF060C072F061C058
:104C180073F062C074F063C075F0FBEC2AF060C0FA
:104C280076F061C077F062C078F063C079F072C046
:104C38006AF073C06BF074C06CF075C06DF0000161
:104C48006A1F6B1F6C1F6D1F6A2B000E6B236C2372
:104C58006D230001765100016A2500016E6F000185
:104C6800775100016B2100016F6F0001785100013D
:104C78006C210001706F0001795100016D21000164
:104C8800716F000171510001701108E1F50E00010A
:104C98006E5D010E00016F59D8A0BFD700017B518E
:104CA8000001D8B41200ADD74050415CD8A004D060
:104CB8004550465CD8B0120071B0FED74050415CF8
:104CC800D8B01AD04150010D220EF324D96E010E2E
:104CD800F420DA6EDF50756E412A40504118D8A48E
:104CE80012004550D8A412007184010E0E6E2C0ECD
:104CF8000D6E77EC29F012004550465CD8B01200D2
:104D08004650010D7B0EF324D96E020EF420DA6EA4
:104D1800DF50D8A40AD04650010D7B0EF324D96E7B
:104D2800020EF420DA6E200EDF6E4650010D7B0E67
:104D3800F324D96E020EF420DA6EDF50756E462A1F
:104D480045504618D8A412007184010E0E6E2C0E20
:104D58000D6E77EC29F01200170EF66E5D0EF76EE9
:104D6800000EF86E02EEA5F010EE09F00900F5CF7E
:104D7800EEFFE550E150FAE10E0EF66E5D0EF76EAD
:104D8800000EF86E01EEEFF010EE09F00900F5CF15
:104D9800EEFFE550E150FAE1280EF66E5D0EF76E73
:104DA800000EF86E0900F5CF53F00900F5CF54F066
:104DB80004EE00F08C0EEE6AE806FDE103EE00F06A
:104DC800A00EEE6AE806FDE102EE00F0A50EEE6A1E
:104DD800E806FDE101EE00F0930EEE6AE806FDE15B
:104DE8000001FE6BFD6BFC6B00EE2BF0280EEE6AEB
:104DF800E806FDE155905592000EF86E000128EF87
:104E08002EF0000E00016E6F000E6F6F000E706FB7
:104E1800000E716F6CC060F06DC061F00001626BD4
:104E2800636BA00E0001646F0F0E656F000E666F56
:104E3800000E676FC0EC2AF060C06EF061C06FF0C2
:104E480062C070F063C071F0560E00016E27FF0E4D
:104E58006F23FF0E7023FF0E7123000171BF120034
:104E6800000171510001701100016F1110E1C40EB1
:104E780000016E5DD8A012000AD000F0D90E000122
:104E88006E27FF0E6F23FF0E7023FF0E71230001A4
:104E980071BF1200000171510001701100016F1102
:104EA800ECE100016E05D8A01200E7D7000E366EBF
:104EB80036500001A119FC0BA119366E00019F5153
:104EC8000001A011D8B4368436B404D00001A36B15
:104ED800A32B02D00001A36B0001A33BA3473650CC
:104EE8000001A319DF0BA319366E368E9FC037F069
:104EF800A0C038F00001A2A702D0010E01D0000E18
:104F0800396E0001A2A502D0010E01D0000E3A6E42
:104F18009DC0D9FF9EC0DAFFDF503B6E000120EE36
:104F280001F09D51D9269E51DA22DF503C6E20EEC9
:104F380036F000EE7EF0060EDBCFEBFFE806FCE273
:104F4800440E0001856F010E0001866F41C187F094
:104F580073EC14F01200000E0001656F000161AFE0
:104F680008D00001606D611FD8B0612B010E0001EF
:104F7800656F000163AF05D00001626D631FD8B093
:104F8800632B0001625100016311D8B426D0010ED1
:104F98000001646F06D00001D890623763370001C2
:104FA800642B000163AFF7D7000162510001605D17
:104FB8000001635100016159D8A008D00001625175
:104FC8000001605F000163510001615B0001D8903E
:104FD800633362330001642FE7D700016551000194
:104FE800D8B405D00001606D611FD8B0612B60C0D6
:104FF80060F061C061F01200FF0E0001632500013E
:10500800656F0001666BFF0E6623000166BF120024
:105018000001655100016125D96E0001665100014A
:105028006221DA6EDF500001646F000164390F0BF2
:105038000F0B0001676F0A0E0001676106D00001BF
:105048006751300F76EC2EF005D000016751370F0D
:1050580076EC2EF00001655100016125D96E000142
:10506800665100016221DA6EDF500F0B0001676F95
:105078000A0E0001676106D000016751300F76EC17
:105088002EF005D000016751370F76EC2EF00001A5
:105098006507D8A06607B9D70001726F22EEA5F0A0
:1050A80010EE69F0080EDBCFE3FFE806FCE272C001
:1050B80060F00001616B000E0001636F0A0E626F01
:1050C8009CEC25F00001605100016B2772C060F074
:1050D8000001616B000E0001636F0A0E626FAFEC96
:1050E80027F00001605100016C2768C060F00001E2
:1050F800616B000E0001636F0A0E626F9CEC25F075
:105108000001605100016E2768C060F00001616B0A
:10511800000E0001636F0A0E626FAFEC27F000010A
:10512800605100016F27690E0001616F000E0001D8
:10513800626FE9EC28F01200780ED36EC0909B8C59
:10514800000EF26E550EA76EAA0EA76E0E01FF9105
:10515800040E0E01E76F130E0E01F66F050E0E0119
:10516800D76F550EA76EAA0EA76E0E01FF810F010D
:1051780048693F0E0F01496FF19E926893689468E1
:1051880095689668000E896E000E8A6E000E8C6E09
:10519800000E8D6E938093849294929693968A864D
:1051A800959E8C8E9382938A949E9398C00EC76E18
:1051B800210EC66E95968C86F19A94948B84F28E05
:1051C800F090F08601EC2AF01200000E0001666FE4
:1051D800000E656F21D000016551000161250001B5
:1051E800636F00016651000162210001646F63C0B2
:1051F800F6FF64C0F7FFF86A0E0EF76403D00800E4
:10520800F55005D0F6CFE9FFF7CFEAFFEF5076EC7F
:105218002EF00001654B662B0001655100016125E8
:105228000001636F00016651000162210001646F93
:1052380063C0F6FF64C0F7FFF86A0E0EF76403D088
:105248000800F55005D0F6CFE9FFF7CFEAFFEF5099
:105258000009D8B41200BFD7040E0101446F020E32
:105268000101456FFDC046F1FEC047F1AEC0D9FF50
:10527800AFC0DAFFDF500101486F000120EE01F0F6
:10528800AE51D926AF51DA22DF500101496FFDC076
:105298004AF1FEC04BF14EC04CF14FC04DF144C035
:1052A8004EF1442AAEC0D9FFAFC0DAFFDF50506ECE
:1052B800000120EE01F0AE51D926AF51DA22DF50BD
:1052C800516EFDC0A4F0FEC0A5F050C0A6F051C0BC
:1052D800A7F0000E0001A86FD0EC16F00009D8A4C2
:1052E80012003D961200000E0F6E000E106E000E9A
:1052F800116E000E126E0DC001F00EC002F0036AAE
:10530800046AA00E056E0F0E066E000E076E000EE4
:10531800086E2BEC2CF001C00FF002C010F003C097
:1053280011F004C012F0560E0F26FF0E1022FF0EC9
:105338001122FF0E122212BE12001250111010106C
:105348000EE1C40E0F5CD8A0120009D000F0D90EEF
:105358000F26FF0E1022FF0E1122FF0E122212BE80
:105368001200125011101010F1E10F04D8A0120011
:10537800EDD7000E0001626F060E0001626501D0D4
:105388003AD0000162510D0D0C0EF326000EF422E6
:10539800200EF324D96E020EF420DA6E0201DFAE7D
:1053A80027D0000162510D0D0C0EF326000EF422D9
:1053B800200EF324D96E020EF420DA6E0201DFA665
:1053C80017D0000162510D0D020EF326000EF422D3
:1053D800200EF324D96E020EF420DA6E5050DE1837
:1053E80007E15150DE18D8A403D000016251120021
:1053F8000001622BC1D7FF0E1200530E9512A49E16
:10540800000E736EF00E746E280E726E000E716EC2
:10541800A38EF28EF28C010E00016D6F2C0E6C6F54
:1054280005EC27F07C0E0101226F810E0101236F2C
:10543800000E0101246F000E0001606F030EFEECE8
:105448002DF0000E00016D6FC80E6C6F05EC27F093
:105458007C0E0101226F510E0101236F080E01011C
:10546800246F000E0001606F030EFEEC2DF0000E9D
:1054780000016D6FC80E6C6F05EC27F0120000017B
:105488006F6F31D0000E4F6E000E4E6E0001FC693A
:10549800560E0001FE6F780EFD6F4E0E0001656F0F
:1054A800000E0001666FFD0E0001676F000E00011F
:1054B800686F33EC2BF03D82020E476E47C06EF0EA
:1054C80000016E470101405100016E19F90B6E1978
:1054D8000101406F010E0101426F010E1200000E22
:1054E8001200000E120000016F51000AD8B4CAD78A
:1054F800010AD8B4F4D7030AD8B4F3D7000E1200BF
:10550800000E0001666F000E656F00016251000118
:105518006311D8B42CD0010E0001646F06D00001CD
:10552800D890623763370001642B000163AFF7D767
:105538000001D89065376637000162510001605D4F
:105548000001635100016159D8A00AD000016251DD
:105558000001605F000163510001615B000165812A
:105568000001D890633362330001642FE1D765C02E
:1055780060F066C061F01200000E0001686F000E56
:10558800696F000E6A6F000E6B6F000160A110D08A
:105598000001645100016827000165510001692379
:1055A8000001665100016A230001675100016B2365
:1055B8000001D89064376537663767370001D8909F
:1055C800633362336133603300016051000161115C
:1055D8000001621100016311D8A4D7D768C060F038
:1055E80069C061F06AC062F06BC063F012009D9000
:1055F800000E0001686F000E0001696F000E0001C7
:10560800656FCECF66F0CFCF67F0000166290DE158
:1056180000016729D8A409D00001652B65050001A0
:10562800646F020E00016465ECD79EA007D00001EC
:10563800682B4928D8A402D00001692B49500001E1
:10564800682701014351000169279D8066C060F009
:1056580067C061F068C062F069C063F0120065C09D
:10566800D9FF66C0DAFFDF504C6E000120EE01F072
:105678006551D9266651DA22DF504D6E67C0D9FFD1
:1056880068C0DAFFDF504A6E000120EE01F0675172
:10569800D9266851DA22DF504B6E4CC062F0070EF3
:1056A8007FEC2DF04DC062F0090E7FEC2DF04AC062
:1056B80062F0030E7FEC2DF04BC062F0050E7FEC1C
:1056C8002DF01200000EF0B6010E0001676FF09683
:1056D8008A9662C064F063C065F00001D8906533B3
:1056E80064330001D890653364330001D890653382
:1056F8006433000164517F0B80090CEC2EF000012B
:105708006239E846E00BE00B0CEC2EF07DEC2EF055
:105718000001666F8A86000167B102D0F09601D059
:10572800F08600016651120065EC2EF0000E0001B3
:10573800686F000E50EC28F03C0E0001616FFF0E00
:105748000001626FE9EC28F09C0E0001626F020E06
:105758000001636F3BEC25F0CB0E0001616FFF0E7B
:105768000001626FE9EC28F09C0E0001616F020EE7
:105778000001626FE9EC28F0F20E0001616FFF0E84
:105788000001626FE9EC28F0120000016951000184
:105798006A11D8B426D0010E00016B6F06D0000143
:1057A800D89069376A3700016B2B00016AAFF7D7C9
:1057B800000169510001675D00016A5100016859E3
:1057C800D8A008D0000169510001675F00016A5143
:1057D8000001685B0001D8906A33693300016B2FC0
:1057E800E7D767C067F068C068F01200000EF0B62F
:1057F800010E0001676FF0968A9662C065F063C07B
:1058080066F00001D890663365330001D89066339E
:1058180065330001D89066336533000165517F0B0D
:1058280080090CEC2EF000016239E846E00BE00B31
:1058380010090CEC2EF0000164510CEC2EF08A8655
:10584800000167B102D0F09601D0F0861200000E78
:10585800096E000E0A6E000E0B6E000E0C6E01A093
:1058680008D00550092606500A2207500B22085076
:105878000C22D8900536063607360836D8900432FA
:105888000332023201320150021003100410D8A46E
:10589800E6D709C001F00AC002F00BC003F00CC043
:1058A80004F012000001696F0A0E0001696504D056
:1058B8001A0E0001696502D0000E120069C03EF19F
:1058C800020E0001636F000E626F00016939F00B70
:1058D800500F03090001646FFAEC2BF0040E00016D
:1058E800626F6D0E7FEC2DF0000E0001626F6D0E81
:1058F8007FEC2DF0010E1200000EF0B6010E086EBE
:10590800F0968A9603C005F004C006F0D8900632D7
:105918000532D89006320532D89006320532055045
:105928007F0B800935EC2EF00338E846E00BE00BDE
:1059380035EC2EF082EC2EF0076E8A8608B002D085
:10594800F09601D0F086075012007EC02EF17FC07D
:105958002FF180C030F1D6CF3DF10B0E01013E6F23
:105968000BEC20F0000E436E000E0001816F010E5B
:105978000001816501D0120000018151500D000E17
:10598800F324D96E030EF420DA6E000EDF6E0001E8
:10599800812BEDD70001616F080E0001626F000EC8
:1059A8000001636FD8900001613500016335000183
:1059B800636F0001D8906137000160510001635D99
:1059C800D8A004D0000160510001635F0001622F7C
:1059D800E9D7000163511200000E0001606F060E46
:1059E8000001606501D016D0000160510D0D0C0E4C
:1059F800F326000EF422200EF324D96E020EF420B2
:105A0800DA6E0201DFBE03D000016051120000010E
:105A1800602BE5D7FF0E12006EEC2EF00009D8B40B
:105A28001200D90E0001616FFF0E0001626FE9ECF0
:105A380028F005C161F006C162F0E9EC28F0F30E28
:105A48000001616FFF0E0001626FE9EC28F090EC35
:105A58002EF012009CA202D09C989C88AACF61F0DC
:105A68000001615176EC2EF0080E00016119D8B4DE
:105A780095EC2EF00D0E00016119D8A403D00A0E82
:105A880076EC2EF000016151120000016051000116
:105A98006203F3CF64F0F4CF65F0000160510001B8
:105AA8006303F3500001652700016151000162039F
:105AB800F3500001652764C060F065C061F0120012
:105AC8000001626F000EF0B6010E0001646FF096DF
:105AD8008A96000162510CEC2EF07DEC2EF000014C
