:04000000F9EF00F024
:100008005582FACF18F0FBCF19F0E9CF1AF0EACFF2
:100018001BF0E1CF1CF0E2CF1DF0D9CF1EF0DACFF4
:100028001FF0F3CF20F0F4CF21F0F6CF22F0F7CF76
:1000380023F0F8CF24F0F5CF25F0F0B6F0A0ABD040
:10004800F090620EFFEC26F0276E27A011D04290A8
:1000580042BC429C000E0101366F000E356F42A271
:1000680007D0480EFFEC26F0266E26B04284429256
:1000780027A68AD02968000E2A6E010E2A6401D0AC
:1000880010D02A50500D200EF324D96E020EF42001
:10009800DA6EDF50D8A403D02AC029F002D02A2A69
:1000A800ECD7020E29606BD0040E036E730E14ECAD
:1000B80027F02950500D200EF324D96E020EF4209B
:1000C800DA6E030E046E000E036EECEC25F0020FE0
:1000D800DF6E2950500D200EF324D96E020EF42045
:1000E800DA6E4F0EDF6040D0428A010E2A6E1AD0B7
:1000F8002950500D200E136E020E146EF350132665
:10010800F45014222A501324D96E000E1420DA6EEB
:10011800000E2A24036E046A030E0422ECEC25F078
:10012800DF6E2A2A2A50136E146A2950500D200EA9
:10013800F324D96E020EF420DA6EDF50156E166ABB
:10014800020E1526000E16221350155C1650800A52
:10015800176E1450800A1758D8B0CAD7010E036E0C
:100168001B0E14EC27F005D0010E036E1B0E14ECC9
:1001780027F0000E036E730E14EC27F005D0010E65
:10018800036E1B0E14EC27F027A805D0800E036E13
:10019800590E14EC27F09EB09DA007D09E90492AD6
:1001A8004950D8A402D001013F2B8AEC27F025C082
:1001B800F5FF24C0F8FF23C0F7FF22C0F6FF21C0D7
:1001C800F4FF20C0F3FF1FC0DAFF1EC0D9FF1DC017
:1001D800E2FF1CC0E1FF1BC0EAFF1AC0E9FF19C01B
:1001E800FBFF18C0FAFF55921100EEEF21F096ECD4
:1001F8000BF00009D8B479EF0AF03DB41200000EF4
:100208000101006F2BA404D00001B06BB02B02D009
:100218000001B06B010100510001B019FC0BB019CD
:100228000101006F2BA603D00101008702D0010154
:1002380000972B50030BE806D8A404D00001B06B3C
:10024800B02B02D00001B06B0001B03BB0470101F8
:1002580000510001B019DF0BB0190101006F2BAE7E
:1002680003D00101008D02D00101009D2BAE0BD0FF
:1002780033B003D00101009F02D00101008F2CC0D0
:1002880003F12DC004F134C001F135C002F132C0D0
:1002980009F131C008F13D9469EF0AF00A0E3060A7
:1002A80002D076EF0AF020EE02F02E50D9262F5019
:1002B800DA22DF500001CD6F20EE03F02E50D92650
:1002C8002F50DA22DF500001CE6F20EE04F02E50BE
:1002D800D9262F50DA22DF500001D06F20EE05F02A
:1002E8002E50D9262F50DA22DF500001D16F20EE90
:1002F80006F02E50D9262F50DA22DF500001D26F97
:1003080020EE07F02E50D9262F50DA22DF500001B8
:10031800D36F20EE08F02E50D9262F50DA22DF5066
:100328000001D56F20EE09F02E50D9262F50DA2281
:10033800DF500001D66F000E0101006F2BA603D01D
:100348000101008702D00101009701010051030B50
:100358000009D8A407D00001D02903E10001D12960
:10036800D8A41ED14E500001D51911E14F500001FB
:10037800D619D8A40CD00001FD510001D21907E10B
:100388000001FE510001D319D8B476EF0AF02EC04F
:10039800D9FF2FC0DAFF010EDF6447D02EC0D9FF86
:1003A8002FC0DAFFDF06000E0001FC6F000E00010F
:1003B800D86F18D00001D851010DF3502E24D96EF2
:1003C800F4502F20DA6E0001FC51010D9B0EF3242E
:1003D800E16E010EF420E26EDFCFE7FF0001FC2B97
:1003E8000001D82B30500001D85DD8A0E3D72BC02E
:1003F80036F0FDC03BF0FEC03CF033C03AF0140EBE
:100408009BEC1FF020EE36F000EE7EF0060EDBCF00
:10041800EBFFE806FCE29B0E0001856F010E000170
:10042800866FFCC087F0FFEC0EF0000E0001D86F5D
:10043800030E0001D86501D03CD00001D851080D49
:10044800030EF326000EF422000EF324D96E020EDA
:10045800F420DA6EDF50D8B429D00001D851080D45
:10046800000EF324D96E020EF420DA6E0001D55185
:10047800DE181CE10001D651DE18D8A417D020EEF2
:100488000AF02E50D9262F50DA220001D851080D33
:10049800020EF326000EF422000EF324E16E020E83
:1004A800F420E26EDE50E618D8B403D00001D82B51
:1004B800BFD7040E0001D86102D076EF0AF0000E13
:1004C8000001D86F030E0001D86501D013D00001D8
:1004D800D851080D030EF326000EF422000EF32463
:1004E800D96E020EF420DA6EDF50D8B403D00001C2
:1004F800D82BE8D7040E0001D8614CD00001D851A0
:10050800080D000EF324D96E020EF420DA6ED5C061
:10051800DEFFD6C0DDFF20EE0AF02E50D9262F5080
:10052800DA220001D851080D020EF326000EF4223B
:10053800000EF324E16E020EF420E26EDFCFE7FF37
:100548000001D851080D030EF326000EF422000E08
:10055800F324D96E020EF420DA6E030EDF6E98ECE7
:1005680024F00001D851080D040EF326000EF422E1
:10057800000EF324D96E020EF420DA6E000160C07A
:10058800DEFF000161C0DEFF000162C0DEFF000186
:1005980063C0DEFF01010051FC0B0109006F7AD036
:1005A8000001FD510001CD1905E10001FE510001D6
:1005B800CE19D8A4CAD24E500001D01904E14F5028
:1005C8000001D119D8A4C1D220EE01F02E50D926AD
:1005D8002F50DA22DFA45ED054C09BF1020E010135
:1005E8009C6FD2C09DF1D3C09EF1D5C09FF1D6C0FB
:1005F800A0F1FDC0A1F1FEC0A2F14EC0A3F14FC011
:10060800A4F120EE0AF02E50D9262F50DA22DF501E
:100618000101A56F000E0101A66F300E0101A76F41
:100628000D0E0001FC6F4F500001D619D8B40ED042
:10063800D2C0A4F0D3C0A5F0D5C0A6F0D6C0A7F00C
:10064800000E0001A86F5CEC11F022D0000E366E8F
:10065800368A010E396E010E3A6ED50E376E000ECF
:10066800386ED2C03BF0D3C03CF020EE36F000EE3E
:100678007EF0060EDBCFEBFFE806FCE29B0E0001E6
:10068800856F010E0001866FFCC087F0FFEC0EF04D
:100698000101008520EE0BF02E50D9262F50DA22CA
:1006A800DF50D8A410D220EE0CF02E50D9262F50AF
:1006B800DA22300EDE18D8A4DCD1EAD10101CEB39B
:1006C8004AD098EC24F060C0E4F161C0E5F162C062
:1006D800E6F163C0E7F120EE08F02E50D9262F503E
:1006E800DA22DF500101D06F20EE09F02E50D92612
:1006F8002F50DA22DF500101D16F000E0001D76FB1
:10070800070E0001D76501D020D00001D7510001A4
:10071800B06FB16B0D0E0001B027000EB1230001C0
:10072800B0512E24D96E0001B1512F20DA6E00018C
:10073800D751010DD20EF324E16E010EF420E26EC2
:10074800DFCFE7FF0001D72BDBD70101CE83010103
:10075800CE9176EF0AF020EE08F02E50D9262F50D1
:10076800DA220101D051DE18D8A40CD020EE09F00D
:100778002E50D9262F50DA220101D151DE18D8B4D3
:1007880076EF0AF00101D0510101D111D8A467D048
:10079800000E0001D76F070E0001D76501D034D0D5
:1007A8000001D7510001B06FB16B0D0E0001B027E9
:1007B800000EB1230001B0512E24D96E0001B151B1
:1007C8002F20DA6E0001D751010DDC0EF324E16E03
:1007D800010EF420E26EDFCFE7FF0001D751010DD3
:1007E800DC0EF324D96E010EF420DA6E0001D75125
:1007F800010D1A0EF324E16E010EF420E26EDFCF34
:10080800E7FF0001D72BC7D720EE08F02E50D926D6
:100818002F50DA22DF500101DA6F20EE09F02E5056
:10082800D9262F50DA22DF500101DB6FDAC150F0F0
:10083800DBC151F0FDC0E8F1FEC0E9F15AEC23F04C
:100848000101CF6F0101CF29D8A498D08D0E486E31
:1008580050BE489081EC1DF00101CF6F8FD00B0E78
:100868000001FC6F0001FC51010D9B0EF324D96EB1
:10087800010EF420DA6E000EDF6E0001FC2B000181
:10088800FC51010D9B0EF324D96E010EF420DA6E93
:10089800110EDF6E0001FC2B000E0001D76F070E52
:1008A8000001D76501D036D00001D7510001B06FE3
:1008B800B16B0D0E0001B027000EB1230001B0513D
:1008C8002E24D96E0001B1512F20DA6E0001D751C4
:1008D800010DDC0EF324E16E010EF420E26EDFCF91
:1008E800E7FF0001D751010DDC0EF324D96E010E8C
:1008F800F420DA6E0001FC51010D9B0EF324E16E29
:10090800010EF420E26EDFCFE7FF0001FC2B0001AF
:10091800D72BC5D720EE08F02E50D9262F50DA2233
:10092800DF500101DA6F20EE09F02E50D9262F5042
:10093800DA22DF500101DB6F0001FC51010D9B0E33
:10094800F324D96E010EF420DA6EDAC1DFFF00015C
:10095800FC2B0001FC51010D9B0EF324D96E010EF6
:10096800F420DA6EDBC1DFFF0001FC2BD00E0001A2
:10097800AE6F010E0001AF6FCDEC22F00101CE8306
:100988000101CE8176EF0AF0000E0001CC6F070E50
:100998000001CC6501D020D00001CC510001B06F1E
:1009A800B16B0D0E0001B027000EB1230001B0514C
:1009B8002E24D96E0001B1512F20DA6E0001CC51DE
:1009C800010D1A0EF324E16E010EF420E26EDFCF62
:1009D800E7FF0001CC2BDBD78D0E486E20EE15F01B
:1009E8002E50D9262F50DA22DFBE489020EE15F07F
:1009F8002E50D9262F50DA22DF50506E20EE16F0F6
:100A08002E50D9262F50DA22DF50516EFDC0E8F162
:100A1800FEC0E9F15AEC23F00101CF6F0101CF29A3
:100A2800D8B412D00101CF510D0D0C0EF326000ED3
:100A3800F422400EF324D96E010EF420DA6EDF5052
:100A4800486E4884488604D08D0E486E50BE489043
:100A580081EC1DF00101CF6F0101CF29D8B403D07B
:100A68000101CE8102D00101CE910101CE9376EF32
:100A78000AF020EE0CF02E50D9262F50DA22DF5043
:100A8800100AD8B41BD6010AD8B47ED776EF0AF07C
:100A980020EE0AF02E50D9262F50DA220101F55106
:100AA800DE18D8A476EF0AF0010131510001D519FA
:100AB80005E1010132510001D619D8A476EF0AF0F8
:100AC8003D9676EF0AF03050F50F0101076F0B0ED7
:100AD8002E240101056F000E2F200101066FD2C0E0
:100AE80001F1D3C002F120EE08F02E50D9262F5084
:100AF800DA22DE28D8A415D020EE09F02E50D92607
:100B08002F50DA22DE28D8A40CD033B003D001014C
:100B1800009F02D00101008F2CC003F12DC004F109
:100B28000AD00101008F080E2E240101036F000E68
:100B38002F200101046F0101008D01010751D8B474
:100B480076EF0AF03D8476EF0AF02EC0D9FF2FC069
:100B5800DAFFDF50D8B476EF0AF02EC0D9FF2FC0E5
:100B6800DAFFDF06000E0001FC6F000E0001D86FEF
:100B780018D00001D851010DF3502E24D96EF4502D
:100B88002F20DA6E0001FC51010D9B0EF324E16E5B
:100B9800010EF420E26EDFCFE7FF0001FC2B00011D
:100BA800D82B30500001D85DD8A0E3D74F500001B2
:100BB800D119D8A42DD00101A651D8A429D0300E1E
:100BC8000101A719D8A424D0000E366E368A010E6A
:100BD800396E010E3A6ED00E376E000E386ECDC0EB
:100BE8003BF0CEC03CF020EE36F000EE7EF0060E74
:100BF800DBCFEBFFE806FCE29B0E0001856F010EE0
:100C08000001866FFCC087F0FFEC0EF076EF0AF06B
:100C1800CDC0A4F0CEC0A5F0D0C0A6F0D1C0A7F03A
:100C2800000E2BB6010E0001A86F5CEC11F076EFF8
:100C38000AF0000E0001CA6F0001CA510001B06F2E
:100C4800B16B040E0001B027000EB1230001B051B2
:100C58002E24D96E0001B1512F20DA6E4D0EDE1808
:100C6800D8A476EF0AF020EE01F02C50D9262D50AA
:100C7800DA22DF500001C56FC5C0B0F0010E0001D7
:100C8800B16F0001B02B03D00001D890B13700013B
:100C9800B02FFAD70001B1510001BE6F2CC0D9FFA7
:100CA8002DC0DAFFDF50D8A404D00001BE510101E5
:100CB8003E130001CA510001B06FB16B060E00016E
:100CC800B027000EB1230001B0512E24D96E0001C7
:100CD800B1512F20DA6E0001C551010D120EF32417
:100CE800E16E010EF420E26EDFCFE7FF3DA0FAD3FC
:100CF80034C0E8F135C0E9F12CC0D9FF2DC0DAFFC6
:100D0800DF50506E20EE01F02C50D9262D50DA22FB
:100D1800DF50516E0001CA51010DF3502E24D96ED7
:100D2800F4502F20DA6EDE28D8A4DCD30001CA5193
:100D38000001B06FB16B010E0001B027000EB123A6
:100D48000001B0512E24D96E0001B1512F20DA6E66
:100D5800DF500001CB6F0A0E3F60C4D30001CB39CE
:100D6800030B0001B06F020E0001B061BBD33F500E
:100D78000E0D000EF324D96E030EF420DA6E52C065
:100D8800DFFF3F500E0D0B0EF326000EF422000E6F
:100D9800F324D96E030EF420DA6E08C1DFFF3F504A
:100DA8000E0D0C0EF326000EF422000EF324D96E5D
:100DB800030EF420DA6E09C1DFFF3F500E0D090E55
:100DC800F326000EF422000EF324D96E030EF4204D
:100DD800DA6EE8C1DEFFE9C1DDFF3F500E0D0D0EF2
:100DE800F326000EF422000EF324D96E030EF4202D
:100DF800DA6E000EDF6E3F500E0D0D0EF326000E5C
:100E0800F422000EF324D96E030EF420DA6E0301E7
:100E1800DF8C0001CB31030B0001B06F3F500E0D8A
:100E28000D0EF326000EF422000EF324D96E030EE5
:100E3800F420DA6E0301DF500001B019FC0BB01981
:100E48000301DF6E0001CBA70ED03F500E0D0D0E33
:100E5800F326000EF422000EF324D96E030EF420BC
:100E6800DA6E0301DF860001CB39030B0001B06F96
:100E7800020E0001B0610ED03F500E0D0D0EF3268C
:100E8800000EF422000EF324D96E030EF420DA6E5D
:100E98000301DF8A03C1D9FF04C1DAFF3F500E0DF9
:100EA800010EF326000EF422000EF324E16E030E69
:100EB800F420E26EDFCFE7FF010120EE01F00351DD
:100EC800D9260451DA223F500E0D020EF326000EE9
:100ED800F422000EF324E16E030EF420E26EDFCF5D
:100EE800E7FF3F500E0D0D0EF326000EF422000E04
:100EF800F324D96E030EF420DA6E0301DF8E3F2A45
:100F0800F1D2000E0001C06F010E416401D0EAD297
:100F1800000E0001D86F070E0001D86501D017D068
:100F28000001D851010DF3502C24D96EF4502D2016
:100F3800DA6E0001D851010D1A0EF324E16E010E8C
:100F4800F420E26EDFCFE7FF0001D82BE4D775EC81
:100F58001EF00001D46F0001D429D8A419D0415043
:100F6800D8A4C0D2B70E486EFDC0E8F1FEC0E9F1C2
:100F780081EC1DF00001D46F0001D429D8A42AD037
:100F8800010E0001C06FFF0E516EFE0E506E95D01F
:100F98000001D4510D0D0C0EF326000EF422400E64
:100FA800F324D96E010EF420DA6E0101DFA612D007
:100FB8000001D4510D0D020EF326000EF422400E4E
:100FC800F324D96E010EF420DA6EDECF50F0DDCFB7
:100FD80051F073D00001D429D8B46FD00001D429BE
:100FE800506E4FC051F0FDC0E8F1FEC0E9F1020EAD
:100FF8004718D8A443D020EE01F02E50D9262F5000
:10100800DA22DFAC3BD050C0BCF051C0BDF0000EBE
:10101800506E010E0001CF6F070E0001CF6501D0A1
:1010280024D0CFC051F05AEC23F00001BF6F00016B
:10103800BF29D8A417D0000E506ECFC051F0CFC032
:10104800B0F0010E0001B16F0001B02B03D0000118
:10105800D890B1370001B02FFAD70001B151010182
:101068003E1303D00001CF2BD7D7080E0001CF19AC
:10107800D8A404D0BCC050F0BDC051F0BF0E486E1B
:1010880020EE01F02E50D9262F50DA22DFB002D000
:101098004890508E81EC1DF00001D46F0001D451AE
:1010A8000D0D0C0EF326000EF422400EF324D96E1B
:1010B800010EF420DA6E0101DF88020E01019B6F38
:1010C80050C09CF151C09DF1C0C09EF1040E0001BA
:1010D800FC6FFD0E00019D6F000E00019E6F000168
:1010E800D4510D0D040EF326000EF422400EF32405
:1010F80000019F6F010EF4200001A06F010E000196
:10110800A16F000E0001A26FA8EC20F0EBD120EE39
:1011180003F02E50D9262F50DA22DF50D8A487D0DA
:1011280020EE01F02E50D9262F50DA22DF504E6ED5
:1011380020EE02F02E50D9262F50DA22DF504F6EC3
:101148004E50D8A424D0010E476E47C0B0F000011D
:10115800B04701013D510001B019F90BB019010167
:101168003D6F4FC0B0F0070E0001B017010E00012F
:10117800B16F0001B02B03D00001D890B137000146
:10118800B02FFAD70001B12901013E130ED0000E8D
:10119800476E47C0B0F00001B04701013D51000162
:1011A800B019F90BB01901013D6F4E0E0001656FC2
:1011B800000E0001666FFD0E0001676F000E000152
:1011C800686FD0EC24F03D82BF0E486E000E00011F
:1011D800D86F070E0001D86501D017D00001D8518B
:1011E800010DF3502C24D96EF4502D20DA6E000135
:1011F800D851010D1A0EF324E16E010EF420E26EAF
:10120800DFCFE7FF0001D82BE4D74E50D8A403D096
:10121800000E516E02D04FC051F0000E506EFDC04E
:10122800E8F1FEC0E9F181EC1DF0466E5BD146683D
:101238000001FD69FE6950685168500E0001656F34
:10124800000E0001666FFD0E0001676F000E0001C1
:10125800686FD0EC24F046D13350D8B417D02CC0E6
:10126800D9FF2DC0DAFFDF50506E20EE01F02C5070
:10127800D9262D50DA22DF50516E5AEC23F00001A6
:10128800C86F0001C829D8B42DD122D0000E0001A2
:10129800D86F070E0001D86501D017D00001D851CA
:1012A800010DF3502C24D96EF4502D20DA6E000174
:1012B800D851010D1A0EF324E16E010EF420E26EEE
:1012C800DFCFE7FF0001D82BE4D775EC1EF0D7D7A6
:1012D8000001C8510D0D0C0EF326000EF422400E2D
:1012E800F324D96E010EF420DA6E0101DFAAFAD0D8
:1012F80046500001C819D8B410D00001C8510D0DCE
:101308000C0EF326000EF422400EF324D96E010EC3
:10131800F420DA6E000EDF6EE5D0000E0001D86F03
:10132800060E0001D86501D08FD00001D8510D0DEF
:101338000C0EF326000EF422400EF324D96E010E93
:10134800F420DA6E0101DFAE6DD00001D8510D0D29
:101358000C0EF326000EF422400EF324D96E010E73
:10136800F420DA6E0101DFAA5DD046500001D819D9
:10137800D8B458D0000E0001FC6F0001FC51010DDB
:101388009B0EF324D96E010EF420DA6E030EDF6E85
:101398000001FC2B000E366E368A3650FC0B010914
:1013A800366E010E396E010E3A6E0001D8510D0DE0
:1013B800400EF324D96E010EF420DA6EDECF3BF036
:1013C800DDCF3CF00001D8510D0D020EF326000EC2
:1013D800F422400EF324376E010EF420386E20EE0E
:1013E80036F000EE7EF0060EDBCFEBFFE806FCE2FF
:1013F8009B0E0001856F010E0001866FFCC087F00F
:10140800FFEC0EF0000E0001C76F000EC66F000162
:10141800C6290F0E0001C759D8B004D00001C64B29
:10142800C72BF5D70001D8510D0D0C0EF326000E71
:10143800F422400EF324D96E010EF420DA6E000E69
:10144800DF6E0001D82B6CD746684E684F680001E4
:10145800FD69FE694E0E0001656F000E0001666FA2
:10146800FD0E0001676F000E0001686FD0EC24F0DC
:101478003D9238D0020E416401D034D03DA232D022
:1014880020EE01F02E50D9262F50DA225250DE18C5
:10149800D8A428D04750D8B425D0140E9BEC1FF000
:1014A80002EC1EF01FD02EC0D9FF2FC0DAFFDF508C
:1014B800010AD8B426D5030AD8B429D6010AD8B463
:1014C800CBD6040AD8B4D6D70DD02B50030B000ABC
:1014D800D8B452EF01F0010AD8B4E5D7020AD8B45B
:1014E8001DEF06F03DA456EC27F098EC24F060C000
:1014F800C1F061C0C2F062C0C3F063C0C4F0000EA6
:101508000001D86F030E0001D86501D067D0000133
:10151800D851080D030EF326000EF422000EF32412
:10152800D96E020EF420DA6EDF50D8B454D0000120
:10153800D851080D040EF326000EF422000EF324F1
:10154800D96E020EF420DA6EDECFB0F0DECFB1F045
:10155800DECFB2F0DECFB3F00001B01FB11FB21F73
:10156800B31FB02B000EB123B223B3230001C15126
:101578000001B0250001B46F0001C2510001B12182
:101588000001B56F0001C3510001B2210001B66F1F
:101598000001C4510001B3210001B76F0001B75128
:1015A8000BE1210E0001B45DA10E0001B559070E33
:1015B8000001B659D8A00FD00001D851080D030E6C
:1015C800F326000EF422000EF324D96E020EF42046
:1015D800DA6E000EDF6E0001D82B94D70101CEA37E
:1015E80012000101CEA163D00B0E0001FC6F0001B7
:1015F800FC51010D9B0EF324D96E010EF420DA6E16
:10160800000EDF6E0001FC2B0001FC51010D9B0E4A
:10161800F324D96E010EF420DA6E110EDF6E00018C
:10162800FC2B000E0001C96F070E0001C96501D02F
:1016380019D00001C951010DD20EF324D96E010E43
:10164800F420DA6E0001FC51010D9B0EF324E16ECB
:10165800010EF420E26EDFCFE7FF0001FC2B000152
:10166800C92BE2D70001FC51010D9B0EF324D96E62
:10167800010EF420DA6ED0C1DFFF0001FC2B00015F
:10168800FC51010D9B0EF324D96E010EF420DA6E85
:10169800D1C1DFFF0001FC2BDA0E0001AE6F010E95
:1016A8000001AF6FCDEC22F00101CE931200E4C12E
:1016B800B0F0E5C1B1F0E6C1B2F0E7C1B3F00001A6
:1016C800B01FB11FB21FB31FB02B000EB123B2233E
:1016D800B3230001C1510001B0250001B86F00011A
:1016E800C2510001B1210001B96F0001C3510001CD
:1016F800B2210001BA6F0001C4510001B3210001F9
:10170800BB6F0001BB510BE1610E0001B85DE30E38
:101718000001B959160E0001BA59D8A012000101EA
:10172800CE93120081A2F08042A012D0010136515E
:1017380005E1800E0101355DD8A007D0000E01013A
:10174800366F000E356F429003D00101354B362BB2
:101758005368000E0001676F010E0001676501D034
:1017680012D000016751500D200EF324D96E020EDD
:10177800F420DA6EDF50D8B403D067C053F003D03A
:101788000001672BE9D7020E536033D3010E000125
:10179800686F5350500D010EF326000EF422200EF0
:1017A800F324D96E020EF420DA6E0201DFBC03D0F6
:1017B800000E0001686F000E2B6E000E336E535042
:1017C800500D020EF326000EF422200EF324D96EDB
:1017D800020EF420DA6EDF50CC0B0001666F55D292
:1017E8005350500D060EF326000EF422200EF3245B
:1017F800D96E020EF420DA6EDE28D8A40FD053502A
:10180800500D070EF326000EF422200EF324D96E95
:10181800020EF420DA6EDE28D8B42B842B8E000159
:1018280068510001D8B429D05350500D040EF32646
:10183800000EF422200EF324D96E020EF420DA6E84
:10184800DF50346E5350500D050EF326000EF4226F
:10185800200EF324D96E020EF420DA6EDF50356EB6
:101868005350500D080EF326000EF422200EF324D8
:101878002C6E020EF4202D6E96D15350500D080E8A
:10188800F326000EF422200EF324D96E020EF42063
:10189800DA6EDF50346E5350500D090EF326000EE9
:1018A800F422200EF324D96E020EF420DA6EDF50F3
:1018B800356E5350500D0A0EA4D15350500D200EC2
:1018C800F324D96E020EF420DA6EDF50EB0F306E7F
:1018D8005350500D120ECBD12B8E000168510001D0
:1018E800D8B437D05350500D040EF326000EF4220E
:1018F800200EF324D96E020EF420DA6EDF50346E17
:101908005350500D050EF326000EF422200EF3243A
:10191800D96E020EF420DA6EDF50356E5350500D3A
:101928000E0EF326000EF422200EF3242C6E020E67
:10193800F4202D6E5350500D200EF324D96E020E54
:10194800F420DA6EDF50E70F306E5350500D160E4C
:101958008ED15350500D0E0EF326000EF422200E99
:10196800F324D96E020EF420DA6EDF50346E535031
:10197800500D0F0EF326000EF422200EF324D96E1C
:10198800020EF420DA6EDF50356E5350500D100EF3
:10199800F326000EF422200EF3242C6E020EF420FF
:1019A8002D6E5350500D200EF324D96E020EF420E4
:1019B800DA6EDF50E50F306E5350500D180E57D1C8
:1019C8002B842B8E010E336E5350500D040EF326CC
:1019D800000EF422200EF324D96E020EF420DA6EE3
:1019E800DF50346E5350500D050EF326000EF422CE
:1019F800200EF324D96E020EF420DA6EDF50356E15
:101A08005350500D060EF326000EF422200EF32438
:101A18002C6E020EF4202D6E5350500D200EF32420
:101A2800D96E020EF420DA6EDF50F50F1CD1535038
:101A3800500D060EF326000EF422200EF324D96E64
:101A4800020EF420DA6EDE28D8A40FD05350500DC1
:101A5800070EF326000EF422200EF324D96E020E90
:101A6800F420DA6EDE28D8B42B842B8E010E336E68
:101A7800000168510001D8A437D05350500D080E0A
:101A8800F326000EF422200EF324D96E020EF42061
:101A9800DA6EDF50346E5350500D090EF326000EE7
:101AA800F422200EF324D96E020EF420DA6EDF50F1
:101AB800356E5350500D0A0EF326000EF422200EF8
:101AC800F3242C6E020EF4202D6E5350500D200E70
:101AD800F324D96E020EF420DA6EDF50F10F306E67
:101AE8005350500D0C0EC3D05350500D040EF32616
:101AF800000EF422200EF324D96E020EF420DA6EC2
:101B0800DF50346E5350500D050EF326000EF422AC
:101B1800200EF324D96E020EF420DA6EDF50356EF3
:101B28005350500D080EF326000EF422200EF32415
:101B38002C6E020EF4202D6E5350500D200EF324FF
:101B4800D96E020EF420DA6EDF50F30F306E535068
:101B5800500D0A0E8CD02B8E010E336E0001685189
:101B68000001D8B42FD05350500D040EF326000EA8
:101B7800F422200EF324D96E020EF420DA6EDF5020
:101B8800346E5350500D050EF326000EF422200E2D
:101B9800F324D96E020EF420DA6EDF50356E5350FE
:101BA800500D0D0E60D65350500D200EF324D96EF3
:101BB800020EF420DA6EDF50ED0F306E5350500DE8
:101BC800100E55D05350500D0D0EF326000EF42272
:101BD800200EF324D96E020EF420DA6EDF50346E34
:101BE8005350500D0E0EF326000EF422200EF3244F
:101BF800D96E020EF420DA6EDF50356E5350500D58
:101C08000F0EF326000EF422200EF3242C6E020E83
:101C1800F4202D6E52D65350500D060EF326000EAA
:101C2800F422200EF324D96E020EF420DA6EDE2898
:101C3800D8A40FD05350500D070EF326000EF422EF
:101C4800200EF324D96E020EF420DA6EDE28D8B402
:101C58002B845350500D200EF324D96E020EF4201D
:101C6800DA6EDF50F60F306E5350500D080EF32623
:101C7800000EF422200EF3242E6E020EF4202F6E96
:101C880019D056EC27F0000E120000016651080A20
:101C9800D8B4C1D7880AD8B493D6080AD8B4C7D656
:101CA800040AD8B458D7440AD8B49AD5040AD8B480
:101CB80013D6E7D75350500D010EF326000EF42229
:101CC800200EF324D96E020EF420DA6E0201DFA68C
:101CD80013D056EC27F0000E1200FC0E2B162ED057
:101CE8002B50FC0B01092B6E29D0030E2B1226D08A
:101CF80056EC27F0000E12005350500D010EF3263B
:101D0800000EF422200EF324D96E020EF420DA6EAF
:101D1800DF50070B0001606F616B00016151000A21
:101D2800D8A4E6D700016051000AD8B4DED7010A6A
:101D3800D8B4D3D7020AD8B4D3D7DAD7FF0E000164
:101D4800606FFF0E0001616F5350500D200EF32499
:101D5800D96E020EF420DA6EDF500001626F636BF9
:101D680000016051000162270001615100016323F5
:101D7800200E0001646F020E0001656F00016251C0
:101D88000001642700016351000165235350500D81
:101D9800F35000016425D96EF45000016521DA6E14
:101DA800DF50326E5350500D200EF324D96E020EC0
:101DB800F420DA6EDF500001606F5350500D200E92
:101DC8000001616F020E0001626FF350000161278C
:101DD800F450000162230001605100016125D96EB1
:101DE8000001000E00016221DA6EDF50316E010E33
:101DF8001200000E1200000E00019C6F000E000180
:101E08009B6F00017EA503D0010E0001816F0001C8
:101E18007EA703D0000E0001826F00017E51030BE4
:101E2800E806D8A402D0030E07D000017E51030BA8
:101E38000009D8A403D0010E0001996F4A5000018F
:101E4800831911E14B5000018419D8A40CD04A28F9
:101E580003E14B28D8B407D0050E00019A6F0001A2
:101E6800998D010E04D0070E00019A6F000E000133
:101E7800986F00018151D8B402D0020E01D0080E2B
:101E880000019A2700018251D8B402D0020E01D075
:101E9800080E00019A2700017EAB05D000017EB52F
:101EA80002D00001998B00017E51030B030AD8A4CC
:101EB8000ED0000E0001996F070E00019A6F000EF8
:101EC8000001986F010E0001826F00017E9B9CC08B
:101ED80062F00001636B9AC064F066EC25F00001C3
:101EE8009C2B9CC062F00001636B00019A510001B9
:101EF80087250001646F66EC25F000019C2B9CC0CF
:101F080062F00001636B99C064F066EC25F0000193
:101F18009C2B00017E51030B030AD8A416D09CC049
:101F280062F00001636B800E0001646F66EC25F0BF
:101F380000019C2B9CC062F00001636B3AC164F005
:101F480066EC25F001013A2B9CD000018151D8B4F0
:101F58000ED000018251D8B40AD09CC062F00001B2
:101F6800636B880E0001646F66EC25F02DD00001CC
:101F78008151D8B40ED000018251D8A40AD09CC097
:101F880062F00001636BC80E0001646F66EC25F017
:101F98001BD000018151D8A40ED000018205D8A41D
:101FA8000AD09CC062F00001636B8C0E0001646F64
:101FB80066EC25F009D09CC062F00001636BCC0E82
:101FC8000001646F66EC25F000019C2B9CC062F058
:101FD8000001636B3AC164F066EC25F001013A2B0D
:101FE80000019C2B9CC062F00001636B83C064F00D
:101FF80066EC25F000019C2B9CC062F00001636B2D
:1020080084C064F066EC25F000019C2B00017EA5DD
:1020180015D09CC062F00001636BFF0E0001646F75
:1020280066EC25F000019C2B9CC062F00001636BFC
:10203800FF0E0001646F66EC25F023D0000181518A
:10204800D8B422D09CC062F00001636B7FC0D9FF76
:1020580080C0DAFFDF500001646F66EC25F00001F4
:102068009C2B9CC062F00001636B000120EE01F024
:102078007F51D9268051DA22DF500001646F66EC67
:1020880025F000019C2B21D0000E00019B6F070E4C
:1020980000019B6501D019D09CC062F00001636B00
:1020A80000019B51010DF35000017F25D96EF450BA
:1020B80000018021DA6EDF500001646F66EC25F0C4
:1020C80000019C2B00019B2BE2D7000198510001D5
:1020D800D8A414D09CC062F00001636B4AC064F0BD
:1020E80066EC25F000019C2B9CC062F00001636B3C
:1020F8004BC064F066EC25F000019C2B0001825176
:10210800D8B415D09CC062F00001636B4CC064F079
:1021180066EC25F000019C2B9CC062F00001636B0B
:102128004DC064F066EC25F000019C2B21D0000E18
:1021380000019B6F070E00019B6501D019D09CC060
:1021480062F00001636B00019B51010DF350010126
:102158002F25D96EF45001013021DA6EDF500001CD
:10216800646F66EC25F000019C2B00019B2BE2D7E5
:10217800000E00019B6F18D09CC062F00001636BD9
:1021880000019B51010DF35000018525D96EF450D3
:1021980000018621DA6EDF500001646F66EC25F0DD
:1021A80000019C2B00019B2B0001875100019B5DC6
:1021B800D8A0E2D7428000017EAB08D000017EB5EE
:1021C80005D0050E00019B6F428204D0010E00016C
:1021D8009B6F42929BC062F0370ED0EC26F098ECD1
:1021E80024F060C090F061C091F062C092F063C0CA
:1021F80093F081A2F08042B005D042A457D0429417
:10220800000E120098EC24F060C094F061C095F0C4
:1022180062C096F063C097F090C088F091C089F0D2
:1022280092C08AF093C08BF00001881F891F8A1F13
:102238008B1F882B000E89238A238B23000194513E
:102248000001882500018C6F00019551000189214A
:1022580000018D6F0001965100018A2100018E6FE7
:102268000001975100018B2100018F6F00018F51F0
:1022780000018E1108E1210E00018C5D4E0E000157
:102288008D59D8A0B6D723EC19F04C0E0001656F14
:10229800000E0001666F4A0E0001676F000E000114
:1022A800686FD0EC24F04290000E1200010E12006C
:1022B8000001A751070B0001AC6F0001AC514F188A
:1022C800D8A433D0800E0001A66502D0000E1200FB
:1022D800000E366E368A0001A8B102D0369601D0BB
:1022E8003686A6C050F0A7C051F0010E396E010E17
:1022F8003A6E500E376E000E386EFDC03BF0FEC0D1
:102308003CF020EE36F000EE7EF0060EDBCFEBFF61
:10231800E806FCE29B0E0001856F010E0001866F46
:10232800FCC087F0FFEC0EF01200ACC0A9F0010E63
:102338000001AA6F0001A92B03D00001D890AA3789
:102348000001A92FFAD70001AA5101013E15000981
:10235800D8B480D00001AC51010D0A0EF324D96E17
:10236800010EF420DA6E020EDF642DD00001AC51AC
:10237800010D0A0EF324D96E010EF420DA6E000E58
:10238800DF6EACC0A9F0010E0001AA6F0001A92BF5
:1023980003D00001D890AA370001A92FFAD700016D
:1023A800AA51FF0A01013E170001AC51010D120E9E
:1023B800F324D96E010EF420DA6E000EDF6E02EC03
:1023C8001EF0000E1200000E366E368A0001A8B10B
:1023D80002D0369601D03686000E506EACC051F051
:1023E800010E396E010E3A6E500E376E000E386EC1
:1023F800FDC03BF0FEC03CF020EE36F000EE7EF073
:10240800060EDBCFEBFFE806FCE29B0E0001856FB2
:10241800010E0001866FFCC087F0FFEC0EF000098A
:10242800D8A40BD00001AC51010D0A0EF324D96ECB
:10243800010EF420DA6EDF2AC4D70001AC51010D79
:102448000A0EF324D96E010EF420DA6E000EDF6E48
:10245800010E1200000E0001AD6F070E0001AD6500
:1024680001D0DDD00001AD51010D120EF324D96E5B
:10247800010EF420DA6EDF500001A96FACC0AAF09B
:10248800010E0001AB6F0001AA2B03D00001D89008
:10249800AB370001AA2FFAD70001AB510001A915EB
:1024A8000009D8B4B9D00001AD51010D0A0EF324CA
:1024B800D96E010EF420DA6E020EDF6465D00001D9
:1024C800AD51010D0A0EF324D96E010EF420DA6E17
:1024D800000EDF6EADC0A9F0010E0001AA6F000169
:1024E800A92B03D00001D890AA370001A92FFAD749
:1024F8000001AA51FF0A01013E170001AD51010D6B
:10250800120EF324D96E010EF420DA6E000EDF6E7F
:102518004750D8B403D002EC1EF034D0000E0001AE
:10252800FC6F0001FC51010D9B0EF324D96E010EC6
:10253800F420DA6E070EDF6E0001FC2B0001FC515F
:10254800010D9B0EF324D96E010EF420DA6E52C0F1
:10255800DFFF0001FC2B0101E869E969E80E0001D1
:102568009D6F010E00019E6F000E00019F6F000E0F
:102578000001A06F010E0001A16F000E0001A26F03
:10258800A8EC20F0000E1200000E366E368A00010C
:10259800A8B102D0369601D03686000E506EADC076
:1025A80051F0010E396E010E3A6E500E376E000E64
:1025B800386EFDC03BF0FEC03CF020EE36F000EE79
:1025C8007EF0060EDBCFEBFFE806FCE29B0E000177
:1025D800856F010E0001866FFCC087F0FFEC0EF0DE
:1025E8000009D8A40CD00001AD51010D0A0EF32446
:1025F800D96E010EF420DA6EDF2A000E12000001F7
:10260800AD51010D0A0EF324D96E010EF420DA6ED5
:10261800000EDF6E010E12000001AD2B1ED7020E58
:102628004718D8B469D0000E366E368A0001A8B1B2
:1026380002D0369601D036864704D8B42ED0000E84
:102648000001AD6F070E0001AD6501D01FD001017B
:102658003E51D8B418D0ADC0A9F0010E0001AA6F40
:10266800000E0001AB6F0001A92B04D0D890000127
:10267800AA37AB370001A92FF9D70001AA510001E9
:10268800AB11D8A403D00001AD2BDCD7080E000194
:10269800AD6103D0ADC051F002D0000E516E000EF6
:1026A800506E010E396E010E3A6E500E376E000EE6
:1026B800386EFDC03BF0FEC03CF020EE36F000EE78
:1026C8007EF0060EDBCFEBFFE806FCE29B0E000176
:1026D800856F010E0001866FFCC087F0FFEC0EF0DD
:1026E8000009D8A404D001010A2B000E1200000E24
:1026F80001010A6F010E1200000E366E368A0001C3
:10270800A8B102D0369601D03686ACC051F0000E82
:10271800506E010E396E010E3A6E500E376E000E75
:10272800386EFDC03BF0FEC03CF020EE36F000EE07
:102738007EF0060EDBCFEBFFE806FCE29B0E000105
:10274800856F010E0001866FFCC087F0FFEC0EF06C
:102758000009D8A404D001010A2B000E1200000EB3
:1027680001010A6F010E120001013C51D8B40BD0CF
:102778000101A651D8B407D03D8643C0F5F1060E35
:102788000001F56F04D0020E0001F56F3D960001BF
:10279800DB510001D8B45BD1000E0001F66F070EC3
:1027A8000001F66501D019D00001F651010DF35072
:1027B8000001D925D96EF4500001DA21DA6E000142
:1027C800F651010D1A0EF324E16E010EF420E26EAB
:1027D800DFCFE7FF0001F62BE2D775EC1EF0000112
:1027E800F76F0001F729D8A442D054C09BF1020E1C
:1027F80001019C6F01019D6901019E6901019F69A9
:102808000101A069FDC0A1F1FEC0A2F14EC0A3F173
:102818004FC0A4F143C0A5F1432A000E366E368A94
:102828000001DCB102D0369601D03686D9C037F027
:10283800DAC038F0000E396E010E3A6EFDC03BF07A
:10284800FEC03CF03D9620EE36F000EE7EF0060E1F
:10285800DBCFEBFFE806FCE29B0E0001856F010E63
:102868000001866FFCC087F0FFEC0EF0120000013B
:10287800F7510D0D0C0EF326000EF422400EF32432
:10288800D96E010EF420DA6E0101DFA6AED7010180
:102898003C51D8B411D00001F7510D0D020EF326AA
:1028A800000EF422400EF324D96E010EF420DA6EE5
:1028B800DECF31F1DDCF32F1040E01019B6FF5C09F
:1028C8009CF10001F7510D0D400EF324D96E010E55
:1028D800F420DA6EDF5001019D6F0001F7510D0DF4
:1028E800010EF326000EF422400EF324D96E010ED9
:1028F800F420DA6EDF5001019E6F0001F7510D0DD3
:10290800020EF326000EF422400EF324D96E010EB7
:10291800F420DA6EDF5001019F6F0001F7510D0DB1
:10292800030EF326000EF422400EF324D96E010E96
:10293800F420DA6EDF500101A06FFDC0A1F1FEC0E6
:10294800A2F14EC0A3F14FC0A4F143C0A5F1432AA0
:102958000001F7510D0D400EF324D96E010EF4203D
:10296800DA6EDECFA4F0DDCFA5F00001F7510D0D32
:10297800020EF326000EF422400EF324D96E010E47
:10298800F420DA6EDECFA6F0DDCFA7F0DCC0A8F029
:102998005CEC11F00009D8A402D03D9612003DA6C7
:1029A800120098EC24F060C0E5F061C0E6F062C067
:1029B800E7F063C0E8F0AAEC27F00009D8A4CCEC53
:1029C80027F03DA6120098EC24F060C0E9F061C041
:1029D800EAF062C0EBF063C0ECF0E5C0DDF0E6C001
:1029E800DEF0E7C0DFF0E8C0E0F00001DD1FDE1F29
:1029F800DF1FE01FDD2B000EDE23DF23E0230001B5
:102A0800E9510001DD250001E16F0001EA510001F3
:102A1800DE210001E26F0001EB510001DF2100011E
:102A2800E36F0001EC510001E0210001E46F0001B7
:102A3800E4510BE1210E0001E15DA10E0001E25914
:102A4800070E0001E359D8A0B6D73D961200040E30
:102A580001019B6FF5C09CF1FDC09DF1FEC09EF188
:102A6800D9C0D9FFDAC0DAFFDF5001019F6F00013A
:102A780020EE01F0D951D926DA51DA22DF500101CE
:102A8800A06FFDC0A1F1FEC0A2F14EC0A3F14FC0DE
:102A9800A4F143C0A5F1432AD9C0D9FFDAC0DAFFAF
:102AA800DF500101316F000120EE01F0D951D92624
:102AB800DA51DA22DF500101326FD9C0D9FFDAC00A
:102AC800DAFFDF50506E000120EE01F0D951D9260F
:102AD800DA51DA22DF50516EFDC0A4F0FEC0A5F035
:102AE80050C0A6F051C0A7F0DCC0A8F05CEC11F013
:102AF8000009D8A402D03D9612003DA6120098EC19
:102B080024F060C0EDF061C0EEF062C0EFF063C089
:102B1800F0F0AAEC27F00009D8A4CCEC27F03DA6E9
:102B2800120098EC24F060C0F1F061C0F2F062C0CD
:102B3800F3F063C0F4F0EDC0DDF0EEC0DEF0EFC0FE
:102B4800DFF0F0C0E0F00001DD1FDE1FDF1FE01F37
:102B5800DD2B000EDE23DF23E0230001F15100010D
:102B6800DD250001E16F0001F2510001DE210001C5
:102B7800E26F0001F3510001DF210001E36F000162
:102B8800F4510001E0210001E46F0001E4510BE180
:102B9800210E0001E15DA10E0001E259070E0001BE
:102BA800E359D8A0B6D73D9612000201F36F030E81
:102BB8000201F26F0001F905D8A414D0C9EC17F08E
:102BC80006D0AAEC27F00009D8A4CCEC27F0010124
:102BD800CEB3F7D70101CEA103D00101CF51120026
:102BE800FF0E12000001F9510001D8A4CCD1020156
:102BF800F329D8B406D02AD00201F22F02D0FF0E52
:102C0800120052C0EAF1010E0101EB6FEC6BED6BA3
:102C1800EE6B0101EA2B06D0D8900101EB37EC37B7
:102C2800ED37EE370101EA2FF7D7EBC1D9F0ECC148
:102C3800DAF0EDC1DBF0EEC1DCF00A0E7DEC1AF043
:102C48000009D8B4D9D7000E0201F36F0201F3517D
:102C58000E0D090EF326000EF422000EF324D96E91
:102C6800030EF420DA6EDECFE8F1DDCFE9F10201E0
:102C7800F3510E0D010EF326000EF422000EF3247C
:102C8800D96E030EF420DA6EDF50506E0201F35154
:102C98000E0D020EF326000EF422000EF324D96E58
:102CA800030EF420DA6EDF50516E5AEC23F0466EB4
:102CB8004628D8A408D05CEC26F0466E4628D8A44E
:102CC80002D0FF0E120046500D0D0C0EF326000E1A
:102CD800F422400EF324D96E010EF420DA6E000EB1
:102CE800DF6E0201F3510E0D090EF326000EF422D9
:102CF800000EF324D96E030EF420DA6E46500D0D43
:102D0800400EF324E16E010EF420E26EDECFE6FF02
:102D1800DDCFE5FF0201F3510E0D010EF326000E83
:102D2800F422000EF324D96E030EF420DA6E465016
:102D38000D0D020EF326000EF422400EF324E16E70
:102D4800010EF420E26EDFCFE7FF0201F3510E0D12
:102D5800020EF326000EF422000EF324D96E030EA1
:102D6800F420DA6E46500D0D030EF326000EF42201
:102D7800400EF324E16E010EF420E26EDFCFE7FF90
:102D880046500D0D0C0EF326000EF422400EF324CF
:102D9800D96E010EF420DA6E0101DF8646500D0D62
:102DA8000C0EF326000EF422400EF324D96E010E09
:102DB800F420DA6E0101DF8246500D0D0C0EF32669
:102DC800000EF422400EF324D96E010EF420DA6EC0
:102DD8000101DF8A46500D0D0C0EF326000EF42279
:102DE800400EF324D96E010EF420DA6E0101DF8063
:102DF8000201F3510E0D000EF324D96E030EF420D8
:102E0800DA6EDF5028EC27F046500D0D400EF32403
:102E1800D96E010EF420DA6EDECFFDF0DDCFFEF0C4
:102E280050685168500E0001656F000E0001666F12
:102E3800FD0E0001676F000E0001686FD0EC24F0F2
:102E4800000E0001FC6F0001FC51010D9B0EF324E4
:102E5800D96E010EF420DA6E010EDF6E0001FC2B34
:102E68000001FC51010D9B0EF324D96E010EF420D4
:102E7800DA6E3DC1DFFF0001FC2B46500D0D400E00
:102E8800F32400019D6F010EF42000019E6F46504F
:102E98000D0D020EF326000EF422400EF32400015D
:102EA8009F6F010EF4200001A06F010E0001A16FB9
:102EB800080E0001A26FA8EC20F098EC24F060C086
:102EC800EAF261C0EBF262C0ECF263C0EDF24AD004
:102ED800AAEC27F00009D8A4CCEC27F098EC24F051
:102EE80060C0EEF261C0EFF262C0F0F263C0F1F2CE
:102EF800EAC2EAF1EBC2EBF1ECC2ECF1EDC2EDF1A2
:102F08000101EA1FEB1FEC1FED1FEA2B000EEB235C
:102F1800EC23ED230201EE510101EA250101EE6FD8
:102F28000201EF510101EB210101EF6F0201F051A4
:102F38000101EC210101F06F0201F1510101ED21C4
:102F48000101F16F0101F1510BE1210E0101EE5D6B
:102F5800A10E0101EF59070E0101F059D8A002D0C6
:102F6800FF0E120046500D0D0C0EF326000EF42233
:102F7800400EF324D96E010EF420DA6E0101DFA8A9
:102F8800A7D746501200FF0E12000101CE91020E83
:102F98004718D8A4F7D00101CEB333D098EC24F069
:102FA80060C0E4F161C0E5F162C0E6F163C0E7F139
:102FB800000E0101D16F000ED06F000E0001F86FF6
:102FC800070E0001F86501D017D00001F851010D76
:102FD800F60EF324D96E010EF420DA6E0001F851D2
:102FE800010DD20EF324E16E010EF420E26EDFCF64
:102FF800E7FF0001F82BE4D70101CE830101CE9150
:1030080012000101D0510101D111D8B412004E5063
:103018000101D01905E14F500101D119D8B41200AE
:103028000B0E0001FC6F0001FC51010D9B0EF324F7
:10303800D96E010EF420DA6E000EDF6E0001FC2B53
:103048000001FC51010D9B0EF324D96E010EF420F2
:10305800DA6E110EDF6E0001FC2B000E0001F86F16
:10306800070E0001F86501D019D00001F851010DD3
:10307800F60EF324D96E010EF420DA6E0001FC512D
:10308800010D9B0EF324E16E010EF420E26EDFCFFA
:10309800E7FF0001FC2B0001F82BE2D70001FC51EF
:1030A800010D9B0EF324D96E010EF420DA6E4EC08A
:1030B800DFFF0001FC2B0001FC51010D9B0EF324E6
:1030C800D96E010EF420DA6E4FC0DFFF0001FC2B31
:1030D800000E0001F86F070E0001F86501D017D047
:1030E8000001F851010DD20EF324D96E010EF4201F
:1030F800DA6E0001F851010D1A0EF324E16E010E8B
:10310800F420E26EDFCFE7FF0001F82BE4D7D0C14F
:1031180050F0D1C151F05AEC23F00101CF6F0101F9
:10312800CF29D8B410D00101CF510D0D0C0EF326C4
:10313800000EF422400EF324D96E010EF420DA6E4C
:10314800DF50486E04D08C0E486E50AE4880FDC0EB
:10315800E8F1FEC0E9F181EC1DF00101CF6FD00E5E
:103168000001D96F010E0001DA6F000E0001DB6F5C
:10317800000E0001DC6FB8EC13F00101CE930101E1
:10318800CE81120098EC24F060C0E4F161C0E5F152
:1031980062C0E6F163C0E7F1000E516E000E506E9A
:1031A8000B0E0001FC6F0001FC51010D9B0EF32476
:1031B800D96E010EF420DA6E000EDF6E0001FC2BD2
:1031C8000001FC51010D9B0EF324D96E010EF42071
:1031D800DA6E100EDF6E0001FC2B000E0001F86F96
:1031E800070E0001F86501D019D00001F851010D52
:1031F800F60EF324D96E010EF420DA6E0001FC51AC
:10320800010D9B0EF324E16E010EF420E26EDFCF78
:10321800E7FF0001FC2B0001F82BE2D7500E00015C
:10322800D96F000E0001DA6F000E0001DB6F000E8F
:103238000001DC6FB8EC13F00101CE8312008C9E04
:10324800030E0001736F000E746F000E756F000E91
:10325800766F22D09A0E00016B6F020E6C6F000E13
:103268006D6F000E6E6F00016B07000E6C5B6D5B7F
:103278006E5B00016B29F7E100016C29F4E10001A4
:103288006D29F1E100016E29D8A4EDD7000173077B
:10329800000E745B755B765B00017351000174115D
:1032A8000001751100017611D8A4D4D78C8E0A0EAE
:1032B8000001776F000E786F000E796F000E7A6F3D
:1032C80022D09A0E00016F6F020E706F000E716FA0
:1032D800000E726F00016F07000E705B715B725B0E
:1032E80000016F29F7E100017029F4E1000171295B
:1032F800F1E100017229D8A4EDD700017707000E8B
:10330800785B795B7A5B00017751000178110001E5
:10331800791100017A11D8A4D4D7070E0001626F81
:10332800550ED0EC26F0540EB5EC26F000017D6F5A
:103338007DC06AF0070E00016A17D8A4F4D7000E02
:1033480000017C6F000E7B6FE80E00017B5D030EB1
:1033580000017C59D8B004D000017B4B7C2BF4D7FA
:10336800010E0001626F1B0ED0EC26F0FF0E00016B
:10337800626F070ED0EC26F0FF0E0001626F090E97
:10338800D0EC26F0FF0E0001626F030ED0EC26F0A1
:10339800FF0E0001626F050ED0EC26F0000E000152
:1033A8007D6F070E00017D6501D018D000017D51A9
:1033B800010DF35001012F25D96EF4500101302180
:1033C800DA6EDF500001626F00017D51020DF3508B
:1033D8000B0FD0EC26F000017D2BE3D7020E000185
:1033E800636F020E626F800E0001646F66EC25F059
:1033F800020E0001636F030E626F000E0001646F1E
:1034080066EC25F0020E0001636F060E626F900EE7
:103418000001646F66EC25F0020E0001636F070E71
:10342800626F800E0001646F66EC25F0020E0001E9
:10343800636F080E626F100E0001646F66EC25F072
:10344800020E0001636F200E626F210E0001646F8F
:1034580066EC25F0800E0001626F750ED0EC26F048
:10346800400E0001626F7D0ED0EC26F0600E000168
:10347800626F7F0ED0EC26F0980E0001626F310E5D
:10348800D0EC26F0950E0001626F5D0ED0EC26F0B0
:10349800020E0001636F0F0E626F03EC25F000014E
:1034A8007D6F00017D51A00BA00AD8A4F1D7E60ECC
:1034B8000001626F650ED0EC26F0020E0001636F0A
:1034C800000E626F030E0001646F66EC25F0020EB9
:1034D8000001636F010E626F020E0001646F66ECFB
:1034E80025F0000E0001686F01013B51C2EC25F088
:1034F80012000001F66F010E0001EA6F000EEB6F7B
:10350800000EEC6F000EED6F52C0F7F0000E0001D8
:10351800F86F090E0001F86501D00ED00001F851CE
:103528000E0D000EF324D96E030EF420DA6EFF0E92
:10353800DF6E0001F82BEDD7000E3F6E3D80000EC8
:103548000001F86FE5D0F8C0DDF0EAC0DEF0EBC0AE
:10355800DFF0ECC0E0F0EDC0E1F00001DD2B06D0BB
:10356800D8900001DE37DF37E037E1370001DD2F83
:10357800F7D70001D9510001DE150001E26F000103
:10358800DA510001DF150001E36F0001DB51000192
:10359800E0150001E46F0001DC510001E1150001B4
:1035A800E56F000E0001E2150001E66FF80E00015C
:1035B800E3150001E76FFF0E0001E4150001E86F55
:1035C800070E0001E5150001E96F0001E651000151
:1035D800E7110001E8110001E911D8B497D0000102
:1035E800F85128EC27F0000E0001FC6F0001FC5197
:1035F800010D9B0EF324D96E010EF420DA6E070E2E
:10360800DF6E0001FC2B0001FC51010D9B0EF32421
:10361800D96E010EF420DA6E52C0DFFF0001FC2BD8
:103628000101E869E969E80E00019D6F010E0001DA
:103638009E6F000E00019F6F000E0001A06F010E2B
:103648000001A16F000E0001A26FA8EC20F098EC19
:1036580024F060C0EEF061C0EFF062C0F0F063C02B
:10366800F1F0AAEC27F00009D8A4CCEC27F098ECEC
:1036780024F060C0F2F061C0F3F062C0F4F063C0FF
:10368800F5F0EEC0DDF0EFC0DEF0F0C0DFF0F1C025
:10369800E0F00001DD1FDE1FDF1FE01FDD2B000E45
:1036A800DE23DF23E0230001F2510001DD250001C4
:1036B800E16F0001F3510001DE210001E26F00011A
:1036C800F4510001DF210001E36F0001F551000111
:1036D800E0210001E46F0001F651040D710EF3249E
:1036E800F66EFE0EF420F76E0001E1510900F55C5C
:1036F8000001E2510900F5580001E3510900F558AD
:103708000001E4510900F558D8B0ABD70001F82BF7
:103718001F0E0001F86517D70001F75128EC27F0B4
:103728003D903F501200000E4FEC1CF00B0E28ECA1
:1037380027F00009D8A409D00C0E0001616FFF0E14
:103748000001626F86EC22F0A5D0000E0001D96F4F
:10375800080EDA6F000EDB6F000EDC6F0A0E7DECD0
:103768001AF00101F36F000E0101F26F0101F3512C
:103778000101D8B429D0000E0101F46F1FD0010156
:10378800F4510E0D090EF326000EF422000EF32458
:10379800D96E030EF420DA6E780EDE1806E1560EA6
:1037A800DE18D8A402D0010E01D0000E0101F26F7C
:1037B8000101F251D8A408D00101F42B0101F35101
:1037C8000101F45DD8A0DBD70101F2510101D8B4A1
:1037D8001FD0020EE9EC26F0000E0001F96F01017E
:1037E800F451D9EC15F0FF0AD8A409D0280E00012D
:1037F800616FFF0E0001626F86EC22F04BD0CB0E9A
:103808000001616FFE0E0001626F86EC22F026D087
:10381800000EE9EC26F0000E0001696F000E0001B1
:103828006A6F000E6B6F000E6C6F000E6D6F000EEE
:10383800E0EC23F00009D8A409D05D0E0001616F07
:10384800FF0E0001626F86EC22F024D0F00E00011A
:10385800616FFE0E0001626F86EC22F0770E0001A8
:10386800616FFF0E0001626F86EC22F04E0E0001C0
:10387800616F000E0001626F020E0001636F4EEC73
:1038880021F0F30E0001616FFF0E0001626F86ECFC
:1038980022F01200FFD70001836F4E684F68560E62
:1038A8000001FE6F780EFD6F000E0001876F060E97
:1038B8000001876501D012D0000187510D0D0C0E53
:1038C800F326000EF422400EF324D96E010EF420E4
:1038D800DA6E000EDF6E0001872BE9D7000E0001BB
:1038E800876F070E0001876501D019D00001875145
:1038F800010D120EF324D96E010EF420DA6E000EBB
:10390800DF6E00018751010D0A0EF324D96E010EF6
:10391800F420DA6E000EDF6E0001872BE2D7000E6E
:1039280001013E6F000E476E000E3E6E000E3D6EAA
:10393800000E0101CE6F000E01013D6F96EC27F0DD
:10394800000E0001FC6F000E0001846F000184511D
:10395800870B4009846F00018483000183B103D081
:103968000001849502D000018485F60E0001856F60
:10397800010E0001866F84C07EF085C07FF086C08E
:1039880080F015EC26F04E0E0001656F000E000168
:10399800666FFD0E0001676F000E0001686FD0ECC6
:1039A80024F0525028EC27F001013D8141C082F0FB
:1039B8000001823B01013D5100018219CF0B8219A0
:1039C80001013D6F01013D8D47C082F00001824732
:1039D80001013D5100018219F90B821901013D6F66
:1039E800D6CF43F0F090F08612000B0E0001FC6F6A
:1039F800000E0001A26F000EA16F81A402D0010E7B
:103A080001D0000E00019E6F9F6B01013351000130
:103A18009E1906E10101345100019F19D8B469D0FB
:103A280081A404D000019E6B9E2B02D000019E6BE6
:103A380000019E510101336F346B81B45AD00001EB
:103A4800A05100019E6F9F6B9EC062F09FC063F003
:103A5800DBEC1EF00001A05100019E6F9F6B9EC021
:103A6800A3F09FC0A4F0F30E0001616FFF0E0001E8
:103A7800626F86EC22F0A3C061F0A4C062F086EC0D
:103A880022F01AD00001A1510001A325D96E00012E
:103A9800A2510001A421DA6E0001FC51010D9B0E18
:103AA800F324E16E010EF420E26EDFCFE7FF0001A0
:103AB800FC2B0001A14BA22B0001A1510001A32561
:103AC800D96E0001A2510001A421DA6EDF50D8A4FA
:103AD800D9D70001FC51010D9B0EF324D96E010EBC
:103AE800F420DA6E000EDF6E0001FC2B0101374B6B
:103AF800382B000E20EC24F012000001696948A45C
:103B080003D075EC1EF004D048A604D05AEC23F07C
:103B18000001696F00016929D8A404D05CEC26F083
:103B28000001696F00016929D8B465D000016951A5
:103B38000D0D0C0EF326000EF422400EF324D96E60
:103B4800010EF420DA6E48C0DFFF48A434D0000E1E
:103B58000001686F070E0001686501D02CD00001D4
:103B68006851010D1A0EF324D96E010EF420DA6E95
:103B780000016851010D040EF326000EF422400ED8
:103B88000001666F010E0001676FF35000016627A0
:103B9800F45000016723000169510D0DF350000135
:103BA8006625E16EF45000016721E26EDFCFE7FF82
:103BB8000001682BCFD748A611D0000169510D0D1F
:103BC800020EF326000EF422400EF324D96E010EE5
:103BD800F420DA6E50C0DEFF51C0DDFF00016951EC
:103BE8000D0D400EF324D96E010EF420DA6EE8C1F3
:103BF800DEFFE9C1DDFF000169511200000E00017E
:103C0800FC6F0001FC51010D9B0EF324D96E010ECF
:103C1800F420DA6EFF0EDF6E0001FC2B0001FC5170
:103C2800010D9B0EF324D96E010EF420DA6E3DC10E
:103C3800DFFF0001FC2B0001FC51010D9B0EF3245A
:103C4800D96E010EF420DA6E000EDF6E0001FC2B37
:103C58000001FC51010D9B0EF324D96E010EF420D6
:103C6800DA6E000EDF6E0001FC2B0001FC51010D25
:103C78009B0EF324D96E010EF420DA6E4D0EDF6E22
:103C88000001FC2B0001FC51010D9B0EF324D96EA1
:103C9800010EF420DA6E410EDF6E0001FC2B0001EC
:103CA800FC51010D9B0EF324D96E010EF420DA6E3F
:103CB8003EC1DFFF0001FC2BFD0E00019D6F000ED1
:103CC80000019E6F000E00019F6F000E0001A06FA3
:103CD800030E0001A16F040E0001A26FA8EC20F0F2
:103CE8001200000E0001656F060E0001656501D027
:103CF8005CD0000165510D0D0C0EF326000EF42268
:103D0800400EF324D96E010EF420DA6E0101DFAE05
:103D180049D0000165510D0D0C0EF326000EF4225A
:103D2800400EF324D96E010EF420DA6E0101DFA4EF
:103D380039D0000E0001646F070E0001646501D0E0
:103D48002ED000016451010D1A0EF324D96E010E14
:103D5800F420DA6E00016451010D040EF326000E02
:103D6800F422400E0001616F010E0001626FF350F2
:103D780000016127F45000016223000165510D0D17
:103D8800F35000016125E16EF45000016221E26EFA
:103D9800DE50E618D8A406D00001642BCDD7000168
:103DA800655112000001652B9FD7FF0E1200000E0F
:103DB80000016A6F000E696FA4AA10D00001695152
:103DC80000016225D96E00016A5100016321DA6E93
:103DD8009AEC26F0DF6E0001694B6A2BFF0E00019A
:103DE800646FFF0E0001656F69C066F06AC067F016
:103DF8000001645100016627000165510001672335
:103E08000001665100016225D96E00016751000169
:103E18006321DA6E0D0EDE18D8A4CED700016ABF72
:103E280008D000016A51C8E1080E0001695DD8B0E8
:103E3800C3D7FF0E0001646FFF0E0001656F69C0F4
:103E480066F06AC067F0000164510001662700014E
:103E58006551000167230001665100016225D96E92
:103E68000001675100016321DA6E000EDF6E120057
:103E7800000E0001656F000163AF08D00001626D9C
:103E8800631FD8B0632B010E0001656F000161AF9D
:103E980008D00001606D611FD8B0612B010E0001D0
:103EA800651B000E0001676F000E666F000162510E
:103EB80000016311D8B42CD0010E0001646F06D044
:103EC8000001D890623763370001642B000163AFAB
:103ED800F7D70001D89066376737000162510001B3
:103EE800605D0001635100016159D8A00AD000014A
:103EF80062510001605F000163510001615B0001D4
:103F080066810001D890633362330001642FE1D7E2
:103F1800000165510001D8B405D00001666D671F26
:103F2800D8B0672B66C060F067C061F0120000016E
:103F38007A6F7AC060F0D6503AEC26F000017B6FB9
:103F48004DD000017B0798EC24F060C072F061C08E
:103F580073F062C074F063C075F098EC24F060C030
:103F680076F061C077F062C078F063C079F072C013
:103F78006AF073C06BF074C06CF075C06DF000012E
:103F88006A1F6B1F6C1F6D1F6A2B000E6B236C233F
:103F98006D230001765100016A2500016E6F000152
:103FA800775100016B2100016F6F0001785100010A
:103FB8006C210001706F0001795100016D21000131
:103FC800716F000171510001701108E1F50E0001D7
:103FD8006E5D010E00016F59D8A0BFD700017B515B
:103FE8000001D8B41200ADD701013951405CD8A006
:103FF80004D04450455CD8B0120071B0FED701011E
:104008003951405CD8B01BD04050010D220EF3242A
:10401800D96E010EF420DA6EDF50756E402A010168
:1040280039514018D8A412004450D8A41200718401
:10403800010E0E6E2C0E0D6E14EC23F0120044507F
:10404800455CD8B012004550010DC00EF324D96E5E
:10405800020EF420DA6EDF50D8A40AD04550010DC4
:10406800C00EF324D96E020EF420DA6E200EDF6E35
:104078004550010DC00EF324D96E020EF420DA6EFD
:10408800DF50756E452A44504518D8A41200718433
:10409800010E0E6E2C0E0D6E14EC23F01200000EA5
:1040A80000016E6F000E6F6F000E706F000E716F63
:1040B8006CC060F06DC061F00001626B636BA00EB4
:1040C8000001646F0F0E656F000E666F000E676F5C
:1040D8005DEC24F060C06EF061C06FF062C070F0FB
:1040E80063C071F0560E00016E27FF0E6F23FF0E9E
:1040F8007023FF0E7123000171BF1200000171517E
:104108000001701100016F1110E1C40E00016E5D15
:10411800D8A012000AD000F0D90E00016E27FF0EB9
:104128006F23FF0E7023FF0E7123000171BF120071
:10413800000171510001701100016F11ECE10001E3
:104148006E05D8A01200E7D7000E366E3650000173
:10415800A119FC0BA119366E00019F510001A01195
:10416800D8B4368436B404D00001A36BA32B02D094
:104178000001A36B0001A33BA34736500001A3191C
:10418800DF0BA319366E368E9FC037F0A0C038F00B
:104198000001A2A702D0010E01D0000E396E000165
:1041A800A2A502D0010E01D0000E3A6E9DC0D9FF23
:1041B8009EC0DAFFDF503B6E000120EE01F09D51FA
:1041C800D9269E51DA22DF503C6E20EE36F000EE02
:1041D8007EF0060EDBCFEBFFE806FCE29B0E00014B
:1041E800856F010E0001866FFCC087F0FFEC0EF0B2
:1041F8001200000E0001656F000161AF08D00001D8
:10420800606D611FD8B0612B010E0001656F000160
:1042180063AF05D00001626D631FD8B0632B000146
:10422800625100016311D8B426D0010E0001646FF9
:1042380006D00001D890623763370001642B000173
:1042480063AFF7D7000162510001605D000163515F
:1042580000016159D8A008D0000162510001605FD7
:10426800000163510001615B0001D8906333623340
:104278000001642FE7D7000165510001D8B405D0CB
:104288000001606D611FD8B0612B60C060F061C033
:1042980061F01200FF0E000163250001656F000147
:1042A800666BFF0E6623000166BF120000016551B0
:1042B80000016125D96E0001665100016221DA6EA4
:1042C800DF500001646F000164390F0B0F0B000110
:1042D800676F0A0E0001676106D000016751300F51
:1042E800B2EC27F005D000016751370FB2EC27F088
:1042F8000001655100016125D96E00016651000178
:104308006221DA6EDF500F0B0001676F0A0E0001A1
:10431800676106D000016751300FB2EC27F005D075
:1043280000016751370FB2EC27F000016507D8A0EC
:104338006607B9D70001726F22EEF4F010EE69F04B
:10434800080EDBCFE3FFE806FCE272C060F0000174
:10435800616B000E0001636F0A0E626F3CEC1FF088
:104368000001605100016B2772C060F00001616BB1
:10437800000E0001636F0A0E626FFDEC20F0000171
:10438800605100016C2768C060F00001616B000E8D
:104398000001636F0A0E626F3CEC1FF00001605170
:1043A80000016E2768C060F00001616B000E00011B
:1043B800636F0A0E626FFDEC20F00001605100018E
:1043C8006F27690E0001616F000E0001626F86ECB5
:1043D80022F012008F0EF66E4F0EF76E000EF86E7A
:1043E80002EEF4F010EE09F00900F5CFEEFFE5500B
:1043F800E150FAE1860EF66E4F0EF76E000EF86E7B
:1044080001EEF5F010EE09F00900F5CFEEFFE550EA
:10441800E150FAE1A00EF66E4F0EF76E000EF86E40
:104428000900F5CF53F00900F5CF54F003EE00F082
:104438008C0EEE6AE806FDE102EE00F0EA0EEE6A86
:10444800E806FDE101EE00F0EA0EEE6AE806FDE19D
:104458000001FE6BFD6BFC6B00EE2BF0280EEE6A84
:10446800E806FDE155905592000EF86E000164EFE4
:1044780027F0780ED36EC0909B8C000EF26E550E0E
:10448800A76EAA0EA76E0E01FF91040E0E01E76F2C
:10449800130E0E01F66F050E0E01D76F550EA76E9F
:1044A800AA0EA76E0E01FF810F0148693F0E0F018A
:1044B800496FF19E92689368946895689668000EB3
:1044C800896E000E8A6E000E8C6E000E8D6E9380C3
:1044D80093849294929693968A86959E8C8E9382D4
:1044E800938A949E9398C00EC76E210EC66E9596B9
:1044F8008C86F19A94948B84F28EF090F0869EECE0
:1045080023F01200000E0001666F000E656F21D0C7
:1045180000016551000161250001636F00016651CA
:10452800000162210001646F63C0F6FF64C0F7FFF9
:10453800F86A0E0EF76403D00800F55005D0F6CFE0
:10454800E9FFF7CFEAFFEF50B2EC27F00001654B27
:10455800662B00016551000161250001636F0001B0
:104568006651000162210001646F63C0F6FF64C0F8
:10457800F7FFF86A0E0EF76403D00800F55005D06F
:10458800F6CFE9FFF7CFEAFFEF500009D8B41200E1
:10459800BFD7040E01019B6F020E01019C6FFDC085
:1045A8009DF1FEC09EF1AEC0D9FFAFC0DAFFDF506B
:1045B80001019F6F000120EE01F0AE51D926AF51E5
:1045C800DA22DF500101A06FFDC0A1F1FEC0A2F107
:1045D8004EC0A3F14FC0A4F143C0A5F1432AAEC019
:1045E800D9FFAFC0DAFFDF50506E000120EE01F0B6
:1045F800AE51D926AF51DA22DF50516EFDC0A4F07A
:10460800FEC0A5F050C0A6F051C0A7F0000E0001F2
:10461800A86F5CEC11F00009D8A412003D961200B6
:10462800000E0F6E000E106E000E116E000E126E50
:104638000DC001F00EC002F0036A046AA00E056EF8
:104648000F0E066E000E076E000E086E97EC25F032
:1046580001C00FF002C010F003C011F004C012F046
:10466800560E0F26FF0E1022FF0E1122FF0E1222E9
:1046780012BE12001250111010100EE1C40E0F5C81
:10468800D8A0120009D000F0D90E0F26FF0E102274
:10469800FF0E1122FF0E122212BE1200125011102C
:1046A8001010F1E10F04D8A01200EDD7000E0001A0
:1046B800626F060E0001626501D03AD000016251B6
:1046C8000D0D0C0EF326000EF422400EF324D96EC5
:1046D800010EF420DA6E0101DFAE27D0000162512D
:1046E8000D0D0C0EF326000EF422400EF324D96EA5
:1046F800010EF420DA6E0101DFA617D00001625125
:104708000D0D020EF326000EF422400EF324D96E8E
:10471800010EF420DA6E5050DE1807E15150DE1811
:10472800D8A403D00001625112000001622BC1D746
:10473800FF0E1200530E9512A49E000E736EF00E1B
:10474800746E280E726E000E716EA38EF28EF28C4D
:10475800010E00016D6F2C0E6C6F53EC20F07C0E77
:104768000101226F810E0101236F000E0101246FE8
:10477800000E0001606F030E3AEC27F0000E0001F6
:104788006D6FC80E6C6F53EC20F07C0E0101226F28
:10479800510E0101236F080E0101246F000E000164
:1047A800606F030E3AEC27F0000E00016D6FC80E23
:1047B8006C6F53EC20F0120000016F6F30D0000EC8
:1047C8004F6E000E4E6E4668560E0001FE6F780E54
:1047D800FD6F4E0E0001656F000E0001666FFD0E45
:1047E8000001676F000E0001686FD0EC24F03D8275
:1047F800020E476E47C06EF000016E4701013D5141
:1048080000016E19F90B6E1901013D6F010E0101CE
:104818003E6F010E1200000E1200000E1200000181
:104828006F51000AD8B4CBD7010AD8B4F4D7030A19
:10483800D8B4F3D7000E120000019D6F54C09BF14D
:10484800020E01019C6FFDC09DF1FEC09EF10101A9
:104858009F690101A069FDC0A1F1FEC0A2F14EC08F
:10486800A3F14FC0A4F143C0A5F1432A000E366E50
:10487800368400019DB102D0369601D03686010EED
:104888003A6EFDC03BF0FEC03CF020EE36F000EE84
:104898007EF0060EDBCFEBFFE806FCE29B0E000184
:1048A800856F010E0001866FFCC087F0FFEC0EF0EB
:1048B8001200000E0001686F000E696F000E6A6F2B
:1048C800000E6B6F000160A110D00001645100015F
:1048D8006827000165510001692300016651000144
:1048E8006A230001675100016B230001D8906437E7
:1048F8006537663767370001D890633362336133B1
:104908006033000160510001611100016211000172
:104918006311D8A4D7D768C060F069C061F06AC0D5
:1049280062F06BC063F012009D90000E0001686F8A
:10493800000E0001696F000E0001656FCECF66F0B2
:10494800CFCF67F0000166290DE100016729D8A4DF
:1049580009D00001652B65050001646F020E000196
:104968006465ECD79EA007D00001682B4928D8A41D
:1049780002D00001692B49500001682701013F510D
:10498800000169279D8066C060F067C061F068C05B
:1049980062F069C063F0120065C0D9FF66C0DAFF33
:1049A800DF504C6E000120EE01F06551D9266651AA
:1049B800DA22DF504D6E67C0D9FF68C0DAFFDF50DA
:1049C8004A6E000120EE01F06751D9266851DA22BB
:1049D800DF504B6E4CC062F0070ED0EC26F04DC095
:1049E80062F0090ED0EC26F04AC062F0030ED0EC5B
:1049F80026F04BC062F0050ED0EC26F01200000E37
:104A0800F0B6010E0001676FF0968A9662C064F0F6
:104A180063C065F00001D890653364330001D89015
:104A2800653364330001D890653364330001645101
:104A38007F0B800948EC27F000016239E846E00B5B
:104A4800E00B48EC27F0B9EC27F00001666F8A8686
:104A5800000167B102D0F09601D0F08600016651DE
:104A68001200A1EC27F0000E0001686F000E9EEC0A
:104A780021F0430E0001616FFF0E0001626F86ECAA
:104A880022F0E10E0001626F020E0001636FDBECA1
:104A98001EF0D20E0001616FFF0E0001626F86ECFE
:104AA80022F0E10E0001616F020E0001626F86ECD8
:104AB80022F0F20E0001616FFF0E0001626F86ECBA
:104AC80022F01200000EF0B6010E0001676FF0969A
:104AD8008A9662C065F063C066F00001D8906633BC
:104AE80065330001D890663365330001D89066338A
:104AF8006533000165517F0B800948EC27F0000100
:104B08006239E846E00BE00B100948EC27F0000199
:104B1800645148EC27F08A86000167B102D0F0960C
:104B280001D0F0861200000E096E000E0A6E000E0B
:104B38000B6E000E0C6E01A008D005500926065019
:104B48000A2207500B2208500C22D8900536063648
:104B580007360836D8900432033202320132015047
:104B6800021003100410D8A4E6D709C001F00AC047
:104B780002F00BC003F00CC004F012000001696FD2
:104B88000A0E0001696504D01A0E0001696502D099
:104B9800000E120069C03BF1020E0001636F000EA7
:104BA800626F00016939F00B500F03090001646F4F
:104BB80066EC25F0040E0001626F6D0ED0EC26F055
:104BC800000E0001626F6D0ED0EC26F0010E12008F
:104BD800000EF0B6010E086EF0968A9603C005F036
:104BE80004C006F0D89006320532D8900632053255
:104BF800D8900632053205507F0B800971EC27F0FA
:104C08000338E846E00BE00B71EC27F0BEEC27F028
:104C1800076E8A8608B002D0F09601D0F086075059
:104C280012007EC02EF17FC02FF180C030F1D6CFA8
:104C38003AF10B0E01013B6F23EC19F0000E426EA6
:104C4800000E0001816F010E0001816501D0120084
:104C580000018151500D200EF324D96E020EF4206C
:104C6800DA6E000EDF6E0001812BEDD70001616F57
:104C7800080E0001626F000E0001636FD8900001FA
:104C88006135000163350001636F0001D890613719
:104C9800000160510001635DD8A004D0000160519B
:104CA8000001635F0001622FE9D700016351120020
:104CB800000E0001606F060E0001606501D016D07D
:104CC800000160510D0D0C0EF326000EF422400E6B
:104CD800F324D96E010EF420DA6E0101DFBE03D091
:104CE8000001605112000001602BE5D7FF0E120091
:104CF800AAEC27F00009D8B41200E00E0001616F99
:104D0800FF0E0001626F86EC22F005C161F006C15A
:104D180062F086EC22F0F30E0001616FFF0E0001D5
:104D2800626F86EC22F0CCEC27F012009CA202D035
:104D38009C989C88AACF61F000016151B2EC27F0E1
:104D4800080E00016119D8B4D1EC27F00D0E00014E
:104D58006119D8A403D00A0EB2EC27F00001615102
:104D680012000001626F000EF0B6010E0001646FC0
:104D7800F0968A960001625148EC27F0B9EC27F0CA
:104D88000001636F8A86000164B102D0F09601D0F9
:104D9800F0860001635112000001636F000EF0B647
:104DA800010E0001646FF0968A960001635148EC89
:104DB80027F00001625148EC27F08A86000164B1AF
:104DC80002D0F09601D0F08612000001616F030E48
:104DD8000001616501D0120061C041F041C060F07E
:104DE8000001603B01013D5100016019CF0B6019C2
:104DF80001013D6F1200036E000EF0B6010E056E44
:104E0800F0968A96035071EC27F0BEEC27F0046EFA
:104E18008A8605B002D0F09601D0F08604501200C0
:104E2800046E000EF0B6010E056EF0968A960450D8
:104E380071EC27F0035071EC27F08A8605B002D098
:104E4800F09601D0F086120000016A6F000E000192
:104E5800686F00016A51C2EC25F00009D8B404D08B
:104E68006AC052F0010E1200000E12000001616FBC
:104E780071B4FED7000E406E000E456E61C039F168
:104E880060C044F0718012000001616F9E96C9CF26
:104E980060F0C69E61C0C9FFC6BEFBD79EA6FED7FE
:104EA8009E961200020E536012005350500D200EB1
:104EB800F324D96E020EF420DA6E000EDF6E1200B3
:104EC8003DEC22F07EEC27F035EC25F097EC1BF05A
:104ED8007CEC26F0F9EC1CF0FBD7026E9E96C9CF4D
:104EE80001F0C69E02C0C9FFC6BEFBD79EA6FED76C
:104EF8009E961200949C95847E96000E7D6E330ECD
:104F0800AB6E240EA86E900E9C6E1200A4AE12001A
:104F1800A49EF8EC1FF0000E0E6E050E0D6E14EC3C
:104F280023F01200380ECD6E9E909D80CD80000E2D
:104F3800496E000E01013F6F1200ED0E0001616F16
:104F4800FF0E0001626F86EC22F01200FBEC00F00D
:104F58003DA402D0010E1200000E12000001606F85
:104F6800A8A2FED760C0A9FF1200000E48EC27F0E7
:104F7800C9501200000E71EC27F0C9501200FF0052
:104F8800112233445566691B5B30303B3030660074
:0C4F98003D9456EC27F01200FF041200BC
:10FE700000C0030000A005000060090000E01000C1
:10FE800000E01F0000E03D0000E0790000E0F1002C
:10FE900000E0E10100E0C10300E0810700E0010FA4
:10FEA00000E0011E00443D1B000DB41500010008D8
:10FEB00000400000020010008001000A006400E819
:10FEC0000310270100100000010010436F6E6E65E3
:10FED00078696F6E207265757373696520737572CA
:10FEE0002050414E206578697374616E740A0D006C
:10FEF0004372656174696F6E206427756E206E6F42
:10FF000075766561752050414E0A0D004572726527
:10FF10007572203A2073656C656374696F6E206436
:10FF2000652063616E616C00457272657572203A7E
:10FF300020636F6E6E6578696F6E2072656675738B
:10FF400065650053616973697373657A20766F74B0
:10FF500072652070736575646F203A200045727277
:10FF6000657572203A206372656174696F6E2072E4
:10FF700065667573656500566F747265206164729D
:10FF80006573736520657374203A203078003031D2
:10FF900032333435363738394142434445460030F0
:10FFA000313233343536373839616263646566001F
:10FFB0005258204D657373616765733A2025336429
:10FFC000005458204D657373616765733A2025337B
:10FFD00064000D0A20426F6E6A6F7572203A20002D
:10FFE0000D0A204D657373616765203A001B5B3213
:07FFF0004A00210D0A000088
:08FFF800ACF5DDFFFFF9FFF19C
:00000001FF
