:04000000F9EF00F024
:100008005582FACF18F0FBCF19F0E9CF1AF0EACFF2
:100018001BF0E1CF1CF0E2CF1DF0D9CF1EF0DACFF4
:100028001FF0F3CF20F0F4CF21F0F6CF22F0F7CF76
:1000380023F0F8CF24F0F5CF25F0F0B6F0A0ABD040
:10004800F090620EBCEC0AF0276E27A011D0429007
:1000580042BC429C000E0001946F000E936F42A2B6
:1000680007D0480EBCEC0AF0266E26B042844292B5
:1000780027A68AD02968000E2A6E010E2A6401D0AC
:1000880010D02A50500D000EF324D96E020EF42021
:10009800DA6EDF50D8A403D02AC029F002D02A2A69
:1000A800ECD7020E29606BD0040E036E730ED1ECF0
:1000B8000AF02950500D000EF324D96E020EF420D8
:1000C800DA6E030E046E000E036E78EC0AF0020F6F
:1000D800DF6E2950500D000EF324D96E020EF42065
:1000E800DA6E4F0EDF6040D0428A010E2A6E1AD0B7
:1000F8002950500D000E136E020E146EF350132685
:10010800F45014222A501324D96E000E1420DA6EEB
:10011800000E2A24036E046A030E042278EC0AF007
:10012800DF6E2A2A2A50136E146A2950500D000EC9
:10013800F324D96E020EF420DA6EDF50156E166ABB
:10014800020E1526000E16221350155C1650800A52
:10015800176E1450800A1758D8B0CAD7010E036E0C
:100168001B0ED1EC0AF005D0010E036E1B0ED1EC6C
:100178000AF0000E036E730ED1EC0AF005D0010EE2
:10018800036E1B0ED1EC0AF027A805D0800E036E73
:10019800590ED1EC0AF09EB09DA007D09E904A2A35
:1001A8004A50D8A402D000019B2B0CEC0BF025C0C0
:1001B800F5FF24C0F8FF23C0F7FF22C0F6FF21C0D7
:1001C800F4FF20C0F3FF1FC0DAFF1EC0D9FF1DC017
:1001D800E2FF1CC0E1FF1BC0EAFF1AC0E9FF19C01B
:0E01E800FBFF18C0FAFF5592110093EF08F0CC
:100F000000C0030000A005000060090000E0100020
:100F100000E01F0000E03D0000E0790000E0F1008B
:100F200000E0E10100E0C10300E0810700E0010F03
:100F300000E0011E00443D1B000DB4150001000837
:100F400000400000020010008001000A006400E878
:100F50000310270100100000010010456E74726537
:100F60007A20766F7472652070736575646F203AAD
:100F70000030313233343536373839414243444515
:100F80004600303132333435363738396162636484
:100F90006566005258204D657373616765733A202A
:100FA000253364005458204D657373616765733A47
:100FB00020253364004269656E76656E756520256F
:050FC000632021000088
:100FC60000019551405CD8A004D04450455CD8B08F
:100FD600120071B0FED700019551405CD8B01BD00D
:100FE6004050010D820EF324D96E000EF420DA6E05
:100FF600DF50756E402A000195514018D8A41200A2
:101006004450D8A412007184010E0E6E2C0E0D6E83
:1010160026EC09F012004450455CD8B01200455049
:10102600010D7B0EF324D96E010EF420DA6EDF502B
:10103600D8A40AD04550010D7B0EF324D96E010EBB
:10104600F420DA6E200EDF6E4550010D7B0EF32480
:10105600D96E010EF420DA6EDF50756E452A4450C3
:101066004518D8A412007184010E0E6E2C0E0D6E5A
:1010760026EC09F01200000E01019C6F000E9D6F18
:10108600000E9E6F000E9F6FF9C0EDF0FAC0EEF0F5
:101096000001EF6BF06BA00E0001F16F0F0EF26F07
:1010A600000EF36F000EF46FAEEC09F0EDC09CF18C
:1010B600EEC09DF1EFC09EF1F0C09FF1560E01010A
:1010C6009C27FF0E9D23FF0E9E23FF0E9F230101EB
:1010D6009FBF120001019F5101019E1101019D1147
:1010E60010E1C40E01019C5DD8A012000AD000F0E8
:1010F600D90E01019C27FF0E9D23FF0E9E23FF0E96
:101106009F2301019FBF120001019F5101019E1102
:1011160001019D11ECE101019C05D8A01200E7D761
:10112600480EF66E160EF76E000EF86E01EEA9F07A
:1011360010EE08F00900F5CFEEFFE550E150FAE1B8
:10114600500EF66E160EF76E000EF86E0900F5CF0D
:10115600FBF00900F5CFFCF0540EF66E160EF76E96
:10116600000EF86E0900F5CF54F003EE00F08C0E79
:10117600EE6AE806FDE102EE00F0A00EEE6AE80671
:10118600FDE101EE00F09C0EEE6AE806FDE100EEE0
:1011960060F08D0EEE6AE806FDE100EE2BF0290EFA
:1011A600EE6AE806FDE155905592000EF86E0001D4
:1011B6001CEF0AF0780ED36EC0909B8C000EF26E78
:1011C600550EA76EAA0EA76E0E01FF91040E0E0114
:1011D600E76F130E0E01F66F050E0E01D76F550E53
:1011E600A76EAA0EA76E0E01FF810F0148693F0E7A
:1011F6000F01496FF19E92689368946895689668A6
:10120600000E896E000E8A6E000E8C6E000E8D6EBC
:10121600938093849294929693968A86959E8C8ECA
:101226009382938A949E9398C00EC76E210EC66EC3
:1012360095968C86F19A94948B84F28EF090F08633
:101246006CEC09F01200000E0F6E000E106E000E10
:10125600116E000E126E0DC001F00EC002F0036A90
:10126600046AA00E056E0F0E066E000E076E000EC7
:10127600086E4DEC0AF001C00FF002C010F003C07A
:1012860011F004C012F0560E0F26FF0E1022FF0EAC
:101296001122FF0E122212BE12001250111010104F
:1012A6000EE1C40E0F5CD8A0120009D000F0D90ED2
:1012B6000F26FF0E1022FF0E1122FF0E122212BE63
:1012C6001200125011101010F1E10F04D8A01200F4
:1012D600EDD7530E9512A49E000E736EF00E746E2B
:1012E600280E726E000E716EA38EF28EF28C010EB7
:1012F6000001FA6F2C0EF96F3EEC08F07C0E00012F
:10130600826F810E0001836F000E0001846F000E54
:101316000001ED6F030EE5EC0AF0000E0001FA6F16
:10132600C80EF96F3EEC08F07C0E0001826F510E7C
:101336000001836F080E0001846F000E0001ED6F3F
:10134600030EE5EC0AF0000E0001FA6FC80EF96F05
:101356003EEC08F01200000E0001F56F000EF66F6D
:10136600000EF76F000EF86F0001EDA110D000011E
:10137600F1510001F5270001F2510001F6230001A9
:10138600F3510001F7230001F4510001F823000195
:10139600D890F137F237F337F4370001D890F033AD
:1013A600EF33EE33ED330001ED510001EE11000194
:1013B600EF110001F011D8A4D7D7F5C0EDF0F6C0B3
:1013C600EEF0F7C0EFF0F8C0F0F01200000E0001EA
:1013D600F36F000EF26F17D00001F2510001EE25F7
:1013E6000001F06F0001F3510001EF210001F16FE0
:1013F600F0C0F6FFF1C0F7FF0800F55018EC0BF04F
:101406000001F24BF32B0001F2510001EE25000121
:10141600F06F0001F3510001EF210001F16FF0C000
:10142600F6FFF1C0F7FF0800F5500009D8B4120026
:10143600D3D7DDEC08F000EC0BF0000E0101A86F2D
:10144600000EA76F5B0E0001EE6F0F0E0001EF6F2F
:10145600E9EC09F0A4AA0ED0A00E0101A725D96EC9
:10146600010E0101A821DA6EA1EC0AF0DF6E01017E
:10147600A74BA82B080E0101A7190101A811D8A492
:1014860008D0B50E0001EE6F0F0E0001EF6FE9EC0C
:1014960009F0FFD7000E096E000E0A6E000E0B6EE5
:1014A600000E0C6E01A008D00550092606500A222F
:1014B60007500B2208500C22D89005360636073600
:1014C6000836D8900432033202320132015002103B
:1014D60003100410D8A4E6D709C001F00AC002F030
:1014E6000BC003F00CC004F01200000EF0B6010EA3
:1014F600086EF0968A9603C005F004C006F0D890F0
:1015060006320532D89006320532D89006320532B8
:1015160005507F0B8009F3EC0AF00338E846E00B30
:10152600E00BF3EC0AF01FEC0BF0076E8A8608B0AE
:1015360002D0F09601D0F086075012009CA202D08D
:101546009C989C88AACFEEF00001EE5118EC0BF0A7
:10155600080E0001EE19D8B429EC0BF00D0E0001AF
:10156600EE19D8A403D00A0E18EC0BF00001EE51C8
:101576001200036E000EF0B6010E056EF0968A9606
:101586000350F3EC0AF01FEC0BF0046E8A8605B0EC
:1015960002D0F09601D0F08604501200046E000EC0
:1015A600F0B6010E056EF0968A960450F3EC0AF03A
:1015B6000350F3EC0AF08A8605B002D0F09601D00B
:1015C600F08612000001EE6F71B4FED7000E406E79
:1015D600000E456EEEC095F0EDC044F0718012002D
:1015E600026E9E96C9CF01F0C69E02C0C9FFC6BE56
:1015F600FBD79EA6FED79E961200949C95847E9657
:10160600000E7D6E330EAB6E240EA86E900E9C6E91
:101616001200A4AE1200A49EE3EC07F0000E0E6EBC
:10162600050E0D6E26EC09F012000001ED6FA8A262
:10163600FED7EDC0A9FF1200000EF3EC0AF0C95068
:0F16460012000011223344556669FF041200FFA1
:08FFF800ACF5DDFFFFF9FFF19C
:00000001FF
